{
  "_format": "hh-sol-artifact-1",
  "contractName": "CazzPay",
  "sourceName": "contracts/CazzPay/CazzPay.sol",
  "abi": [
    {
      "inputs": [
        {
          "internalType": "contract IUniswapV2Factory",
          "name": "_factoryContractAddr",
          "type": "address"
        },
        {
          "internalType": "contract IUniswapV2Router02",
          "name": "_routerContractAddr",
          "type": "address"
        },
        {
          "internalType": "contract ICazzPayToken",
          "name": "_czpContractAddr",
          "type": "address"
        },
        {
          "internalType": "address",
          "name": "_wethContractAddr",
          "type": "address"
        },
        {
          "internalType": "uint16",
          "name": "_paymentTransferFeesPerc",
          "type": "uint16"
        },
        {
          "internalType": "address",
          "name": "_approvedPriceFeedSigner",
          "type": "address"
        }
      ],
      "stateMutability": "nonpayable",
      "type": "constructor"
    },
    {
      "anonymous": false,
      "inputs": [
        {
          "indexed": true,
          "internalType": "address",
          "name": "otherTokenContractAddr",
          "type": "address"
        },
        {
          "indexed": true,
          "internalType": "address",
          "name": "liquidityProviderAddr",
          "type": "address"
        },
        {
          "indexed": false,
          "internalType": "uint256",
          "name": "czpAmtAdded",
          "type": "uint256"
        },
        {
          "indexed": false,
          "internalType": "uint256",
          "name": "otherTokenAmtAdded",
          "type": "uint256"
        },
        {
          "indexed": false,
          "internalType": "uint256",
          "name": "liquidityTokensMinted",
          "type": "uint256"
        }
      ],
      "name": "AddedLiquidityToCzpAndOtherTokenPair",
      "type": "event"
    },
    {
      "anonymous": false,
      "inputs": [
        {
          "indexed": true,
          "internalType": "address",
          "name": "payerWalletAddr",
          "type": "address"
        },
        {
          "indexed": false,
          "internalType": "string",
          "name": "recipientAccountId",
          "type": "string"
        },
        {
          "indexed": true,
          "internalType": "uint256",
          "name": "cazzPayTransactionId",
          "type": "uint256"
        },
        {
          "indexed": false,
          "internalType": "address",
          "name": "tokenUsedForPurchaseContractAddr",
          "type": "address"
        },
        {
          "indexed": false,
          "internalType": "uint256",
          "name": "tokenAmtUsedForPurchased",
          "type": "uint256"
        },
        {
          "indexed": false,
          "internalType": "uint256",
          "name": "fiatAmountPaid",
          "type": "uint256"
        },
        {
          "indexed": false,
          "internalType": "uint256",
          "name": "fiatAmountToPayToSeller",
          "type": "uint256"
        }
      ],
      "name": "BoughtWithCrypto",
      "type": "event"
    },
    {
      "anonymous": false,
      "inputs": [
        {
          "indexed": true,
          "internalType": "address",
          "name": "pairAddr",
          "type": "address"
        },
        {
          "indexed": true,
          "internalType": "address",
          "name": "otherTokenContractAddr",
          "type": "address"
        }
      ],
      "name": "CreatedPairWithCzpAndOtherToken",
      "type": "event"
    },
    {
      "anonymous": false,
      "inputs": [
        {
          "indexed": true,
          "internalType": "uint256",
          "name": "cazzPayTransactionId",
          "type": "uint256"
        }
      ],
      "name": "PurchaseConfirmed",
      "type": "event"
    },
    {
      "anonymous": false,
      "inputs": [
        {
          "indexed": false,
          "internalType": "string",
          "name": "sellerId",
          "type": "string"
        },
        {
          "indexed": false,
          "internalType": "string",
          "name": "email",
          "type": "string"
        },
        {
          "indexed": false,
          "internalType": "string",
          "name": "name",
          "type": "string"
        }
      ],
      "name": "SellerInfo",
      "type": "event"
    },
    {
      "anonymous": false,
      "inputs": [
        {
          "indexed": true,
          "internalType": "address",
          "name": "inputTokenContractAddr",
          "type": "address"
        },
        {
          "indexed": true,
          "internalType": "address",
          "name": "outputTokenContractAddr",
          "type": "address"
        },
        {
          "indexed": false,
          "internalType": "uint256",
          "name": "inputTokenAmt",
          "type": "uint256"
        },
        {
          "indexed": false,
          "internalType": "uint256",
          "name": "outputTokenAmt",
          "type": "uint256"
        }
      ],
      "name": "TokensSwapped",
      "type": "event"
    },
    {
      "anonymous": false,
      "inputs": [
        {
          "indexed": true,
          "internalType": "address",
          "name": "otherTokenContractAddr",
          "type": "address"
        },
        {
          "indexed": true,
          "internalType": "address",
          "name": "liquidityProviderAddr",
          "type": "address"
        },
        {
          "indexed": false,
          "internalType": "uint256",
          "name": "czpAmtWithdrawn",
          "type": "uint256"
        },
        {
          "indexed": false,
          "internalType": "uint256",
          "name": "otherTokenAmtWithdrawn",
          "type": "uint256"
        },
        {
          "indexed": false,
          "internalType": "uint256",
          "name": "liquidityTokensSubmitted",
          "type": "uint256"
        }
      ],
      "name": "WithdrawnLiquidityFromCzpAndOtherTokenPair",
      "type": "event"
    },
    {
      "inputs": [
        {
          "internalType": "uint256",
          "name": "_czpAmtToDeposit",
          "type": "uint256"
        },
        {
          "internalType": "uint256",
          "name": "_czpMinAmtToDeposit",
          "type": "uint256"
        },
        {
          "internalType": "uint256",
          "name": "_ethMinAmtToDeposit",
          "type": "uint256"
        },
        {
          "internalType": "uint256",
          "name": "_deadline",
          "type": "uint256"
        }
      ],
      "name": "addLiquidityToCzpAndEthPair",
      "outputs": [
        {
          "internalType": "uint256",
          "name": "czpAmtAdded",
          "type": "uint256"
        },
        {
          "internalType": "uint256",
          "name": "ethAmtAdded",
          "type": "uint256"
        },
        {
          "internalType": "uint256",
          "name": "liquidityTokensMinted",
          "type": "uint256"
        }
      ],
      "stateMutability": "payable",
      "type": "function"
    },
    {
      "inputs": [
        {
          "internalType": "address",
          "name": "_otherTokenContractAddr",
          "type": "address"
        },
        {
          "internalType": "uint256",
          "name": "_czpAmtToDeposit",
          "type": "uint256"
        },
        {
          "internalType": "uint256",
          "name": "_otherTokenAmtToDeposit",
          "type": "uint256"
        },
        {
          "internalType": "uint256",
          "name": "_czpMinAmtToDeposit",
          "type": "uint256"
        },
        {
          "internalType": "uint256",
          "name": "_otherTokenMinAmtToDeposit",
          "type": "uint256"
        },
        {
          "internalType": "uint256",
          "name": "_deadline",
          "type": "uint256"
        }
      ],
      "name": "addLiquidityToCzpAndOtherTokenPair",
      "outputs": [
        {
          "internalType": "uint256",
          "name": "czpAmtAdded",
          "type": "uint256"
        },
        {
          "internalType": "uint256",
          "name": "otherTokenAmtAdded",
          "type": "uint256"
        },
        {
          "internalType": "uint256",
          "name": "liquidityTokensMinted",
          "type": "uint256"
        }
      ],
      "stateMutability": "nonpayable",
      "type": "function"
    },
    {
      "inputs": [
        {
          "internalType": "address",
          "name": "_newOwner",
          "type": "address"
        }
      ],
      "name": "addOwner",
      "outputs": [],
      "stateMutability": "nonpayable",
      "type": "function"
    },
    {
      "inputs": [],
      "name": "approvedPriceFeedSigner",
      "outputs": [
        {
          "internalType": "address",
          "name": "",
          "type": "address"
        }
      ],
      "stateMutability": "view",
      "type": "function"
    },
    {
      "inputs": [
        {
          "internalType": "string",
          "name": "_recipientAccountId",
          "type": "string"
        },
        {
          "internalType": "address",
          "name": "_otherTokenContractAddr",
          "type": "address"
        },
        {
          "internalType": "uint256",
          "name": "_otherTokenMaxAmtToPayWith",
          "type": "uint256"
        },
        {
          "internalType": "uint256",
          "name": "_fiatAmtToPay",
          "type": "uint256"
        },
        {
          "internalType": "uint256",
          "name": "_deadline",
          "type": "uint256"
        }
      ],
      "name": "buyWithCryptoToken",
      "outputs": [
        {
          "internalType": "uint256",
          "name": "otherTokenAmtUsed",
          "type": "uint256"
        },
        {
          "internalType": "uint256",
          "name": "fiatAmountPaid",
          "type": "uint256"
        }
      ],
      "stateMutability": "nonpayable",
      "type": "function"
    },
    {
      "inputs": [
        {
          "internalType": "string",
          "name": "_recipientAccountId",
          "type": "string"
        },
        {
          "internalType": "uint256",
          "name": "_fiatAmtToPay",
          "type": "uint256"
        },
        {
          "internalType": "uint256",
          "name": "_deadline",
          "type": "uint256"
        }
      ],
      "name": "buyWithEth",
      "outputs": [
        {
          "internalType": "uint256",
          "name": "ethAmtUsed",
          "type": "uint256"
        },
        {
          "internalType": "uint256",
          "name": "fiatAmountPaid",
          "type": "uint256"
        }
      ],
      "stateMutability": "payable",
      "type": "function"
    },
    {
      "inputs": [],
      "name": "createPairWithCzpAndEth",
      "outputs": [
        {
          "internalType": "address",
          "name": "pairAddr",
          "type": "address"
        }
      ],
      "stateMutability": "payable",
      "type": "function"
    },
    {
      "inputs": [
        {
          "internalType": "address",
          "name": "_otherTokenContractAddr",
          "type": "address"
        }
      ],
      "name": "createPairWithCzpAndOtherToken",
      "outputs": [
        {
          "internalType": "address",
          "name": "pairAddr",
          "type": "address"
        }
      ],
      "stateMutability": "nonpayable",
      "type": "function"
    },
    {
      "inputs": [],
      "name": "czpContract",
      "outputs": [
        {
          "internalType": "contract ICazzPayToken",
          "name": "",
          "type": "address"
        }
      ],
      "stateMutability": "view",
      "type": "function"
    },
    {
      "inputs": [],
      "name": "factoryContract",
      "outputs": [
        {
          "internalType": "contract IUniswapV2Factory",
          "name": "",
          "type": "address"
        }
      ],
      "stateMutability": "view",
      "type": "function"
    },
    {
      "inputs": [],
      "name": "getAllPairsWithCzpAndOtherToken",
      "outputs": [
        {
          "internalType": "address[]",
          "name": "pairAddrsWithCzpAndOtherToken",
          "type": "address[]"
        }
      ],
      "stateMutability": "view",
      "type": "function"
    },
    {
      "inputs": [
        {
          "internalType": "address",
          "name": "_otherTokenContractAddr",
          "type": "address"
        }
      ],
      "name": "getCzpAndOtherTokenPairAddr",
      "outputs": [
        {
          "internalType": "address",
          "name": "poolAddr",
          "type": "address"
        }
      ],
      "stateMutability": "view",
      "type": "function"
    },
    {
      "inputs": [],
      "name": "getMaxBlockTimestampDelay",
      "outputs": [
        {
          "internalType": "uint256",
          "name": "",
          "type": "uint256"
        }
      ],
      "stateMutability": "pure",
      "type": "function"
    },
    {
      "inputs": [],
      "name": "getMaxDataTimestampDelay",
      "outputs": [
        {
          "internalType": "uint256",
          "name": "",
          "type": "uint256"
        }
      ],
      "stateMutability": "pure",
      "type": "function"
    },
    {
      "inputs": [
        {
          "internalType": "address",
          "name": "_tokenContractAddr",
          "type": "address"
        }
      ],
      "name": "getPriceOfTokenInCzpWithTokenAddress",
      "outputs": [
        {
          "internalType": "uint256",
          "name": "",
          "type": "uint256"
        }
      ],
      "stateMutability": "view",
      "type": "function"
    },
    {
      "inputs": [
        {
          "internalType": "string",
          "name": "_tokenSymbol",
          "type": "string"
        }
      ],
      "name": "getPriceOfTokenInCzpWithTokenSymbol",
      "outputs": [
        {
          "internalType": "uint256",
          "name": "",
          "type": "uint256"
        }
      ],
      "stateMutability": "view",
      "type": "function"
    },
    {
      "inputs": [
        {
          "internalType": "address",
          "name": "_ownerToVerify",
          "type": "address"
        }
      ],
      "name": "isOwner",
      "outputs": [
        {
          "internalType": "bool",
          "name": "",
          "type": "bool"
        }
      ],
      "stateMutability": "view",
      "type": "function"
    },
    {
      "inputs": [
        {
          "internalType": "address",
          "name": "_receivedSigner",
          "type": "address"
        }
      ],
      "name": "isSignerAuthorized",
      "outputs": [
        {
          "internalType": "bool",
          "name": "",
          "type": "bool"
        }
      ],
      "stateMutability": "view",
      "type": "function"
    },
    {
      "inputs": [
        {
          "internalType": "uint256",
          "name": "_receivedTimestamp",
          "type": "uint256"
        }
      ],
      "name": "isTimestampValid",
      "outputs": [
        {
          "internalType": "bool",
          "name": "",
          "type": "bool"
        }
      ],
      "stateMutability": "view",
      "type": "function"
    },
    {
      "inputs": [],
      "name": "paymentTransferFeesPerc",
      "outputs": [
        {
          "internalType": "uint16",
          "name": "",
          "type": "uint16"
        }
      ],
      "stateMutability": "view",
      "type": "function"
    },
    {
      "inputs": [
        {
          "internalType": "address",
          "name": "_ownerToRemove",
          "type": "address"
        }
      ],
      "name": "removeOwner",
      "outputs": [],
      "stateMutability": "nonpayable",
      "type": "function"
    },
    {
      "inputs": [],
      "name": "routerContract",
      "outputs": [
        {
          "internalType": "contract IUniswapV2Router02",
          "name": "",
          "type": "address"
        }
      ],
      "stateMutability": "view",
      "type": "function"
    },
    {
      "inputs": [
        {
          "internalType": "address",
          "name": "_newApprovedPriceFeedSigner",
          "type": "address"
        }
      ],
      "name": "setApprovedPriceFeedSigner",
      "outputs": [],
      "stateMutability": "nonpayable",
      "type": "function"
    },
    {
      "inputs": [
        {
          "internalType": "uint16",
          "name": "_newPaymentTransferFeesPerc",
          "type": "uint16"
        }
      ],
      "name": "setPaymentTransferFeesPerc",
      "outputs": [],
      "stateMutability": "nonpayable",
      "type": "function"
    },
    {
      "inputs": [
        {
          "internalType": "uint256",
          "name": "_cazzPayTransactionIdToConfirm",
          "type": "uint256"
        }
      ],
      "name": "setPurchaseConfirmation",
      "outputs": [],
      "stateMutability": "nonpayable",
      "type": "function"
    },
    {
      "inputs": [
        {
          "internalType": "string",
          "name": "_sellerId",
          "type": "string"
        },
        {
          "internalType": "string",
          "name": "_email",
          "type": "string"
        },
        {
          "internalType": "string",
          "name": "_name",
          "type": "string"
        }
      ],
      "name": "storeSellerInfo",
      "outputs": [],
      "stateMutability": "nonpayable",
      "type": "function"
    },
    {
      "inputs": [
        {
          "internalType": "address",
          "name": "_otherTokenContractAddr",
          "type": "address"
        },
        {
          "internalType": "uint256",
          "name": "_czpAmt",
          "type": "uint256"
        },
        {
          "internalType": "uint256",
          "name": "_otherTokenMinAmt",
          "type": "uint256"
        },
        {
          "internalType": "uint256",
          "name": "_deadline",
          "type": "uint256"
        }
      ],
      "name": "swapCzpForOtherTokens",
      "outputs": [
        {
          "internalType": "uint256",
          "name": "czpAmtUsed",
          "type": "uint256"
        },
        {
          "internalType": "uint256",
          "name": "otherTokenAmtReceived",
          "type": "uint256"
        }
      ],
      "stateMutability": "nonpayable",
      "type": "function"
    },
    {
      "inputs": [
        {
          "internalType": "address",
          "name": "_otherTokenContractAddr",
          "type": "address"
        },
        {
          "internalType": "uint256",
          "name": "_otherTokenAmt",
          "type": "uint256"
        },
        {
          "internalType": "uint256",
          "name": "_czpMinAmt",
          "type": "uint256"
        },
        {
          "internalType": "uint256",
          "name": "_deadline",
          "type": "uint256"
        }
      ],
      "name": "swapOtherTokensForCzp",
      "outputs": [
        {
          "internalType": "uint256",
          "name": "otherTokenAmtUsed",
          "type": "uint256"
        },
        {
          "internalType": "uint256",
          "name": "czpAmtReceived",
          "type": "uint256"
        }
      ],
      "stateMutability": "nonpayable",
      "type": "function"
    },
    {
      "inputs": [],
      "name": "wethContract",
      "outputs": [
        {
          "internalType": "contract IERC20",
          "name": "",
          "type": "address"
        }
      ],
      "stateMutability": "view",
      "type": "function"
    },
    {
      "inputs": [
        {
          "internalType": "address payable",
          "name": "_withdrawToAddr",
          "type": "address"
        }
      ],
      "name": "withdraw",
      "outputs": [],
      "stateMutability": "nonpayable",
      "type": "function"
    },
    {
      "inputs": [
        {
          "internalType": "uint256",
          "name": "_liquidityToWithdraw",
          "type": "uint256"
        },
        {
          "internalType": "uint256",
          "name": "_minCzpToReceive",
          "type": "uint256"
        },
        {
          "internalType": "uint256",
          "name": "_minEthToReceive",
          "type": "uint256"
        },
        {
          "internalType": "uint256",
          "name": "_deadline",
          "type": "uint256"
        }
      ],
      "name": "withdrawLiquidityForCzpAndEth",
      "outputs": [
        {
          "internalType": "uint256",
          "name": "czpReceived",
          "type": "uint256"
        },
        {
          "internalType": "uint256",
          "name": "ethReceived",
          "type": "uint256"
        }
      ],
      "stateMutability": "nonpayable",
      "type": "function"
    },
    {
      "inputs": [
        {
          "internalType": "address",
          "name": "_otherTokenContractAddr",
          "type": "address"
        },
        {
          "internalType": "uint256",
          "name": "_liquidityToWithdraw",
          "type": "uint256"
        },
        {
          "internalType": "uint256",
          "name": "_minCzpToReceive",
          "type": "uint256"
        },
        {
          "internalType": "uint256",
          "name": "_minOtherTokenToReceive",
          "type": "uint256"
        },
        {
          "internalType": "uint256",
          "name": "_deadline",
          "type": "uint256"
        }
      ],
      "name": "withdrawLiquidityForCzpAndOtherToken",
      "outputs": [
        {
          "internalType": "uint256",
          "name": "czpReceived",
          "type": "uint256"
        },
        {
          "internalType": "uint256",
          "name": "otherTokenReceived",
          "type": "uint256"
        }
      ],
      "stateMutability": "nonpayable",
      "type": "function"
    },
    {
      "stateMutability": "payable",
      "type": "receive"
    }
  ],
  "bytecode": "0x6101006040523480156200001257600080fd5b5060405162004de638038062004de6833981810160405260c08110156200003857600080fd5b50805160208083015160408401516060850151608086015160a0909601519495929491939092919081906200007b9060009033906200442d620000eb821b17901c565b50600280546001600160601b03196060998a1b811660805297891b881660a05294881b871660e0529490961b90941660c05261ffff16600160a01b0261ffff60a01b196001600160a01b039095166001600160a01b03199092169190911793909316929092179091555062000184565b60006200010b836001600160a01b0384166001600160e01b036200011416565b90505b92915050565b60006200012b83836001600160e01b036200016c16565b62000163575081546001818101845560008481526020808220909301849055845484825282860190935260409020919091556200010e565b5060006200010e565b60009081526001919091016020526040902054151590565b60805160601c60a05160601c60c05160601c60e05160601c614ad162000315600039806111d452806116b952806119f45280612bdd5280612cd55280613154528061328552806133af5280613760525080610a695280610c055280610e71528061132b52806113d9528061169852806119245280611a745280611b015280611bc95280611d205280611fc052806121c6528061270752806127a85280612926528061297b5280612aea5280612bbc5280612d3d5280612dfb5280612ef45280612fd752806130a952806131d5528061326452806133fd52806135fc52806137f5528061394c5280613af05280613be35280613cb5525080610da45280610e4652806111f8528061185752806118f95280611ec35280612007528061225e5280612e265280612ec85280613006528061344452806139775280613a235280613ac55280613c125280613d765280613fb052806140d4525080610bd652806116695280611cf152806125825280612665528061294c5280612abb5280612b8d528061320d52806132355250614ad16000f3fe6080604052600436106101e65760003560e01c80637505820511610102578063a7d98df211610095578063de11c94a11610064578063de11c94a1461096f578063e6fcdc8314610984578063ee3a1856146109fa578063f31a210a14610a4b576101ed565b8063a7d98df21461081d578063abce7c4f14610825578063b0db3d4414610878578063b1099357146108bd576101ed565b80638f624b36116100d15780638f624b361461073a578063939ff61d146107a2578063949064c5146107b7578063a6e24d27146107ea576101ed565b806375058205146106095780637590c96b14610633578063821a813c1461066f57806385d7a44f14610707576101ed565b806346bf10751161017a57806351cff8d91161014957806351cff8d9146105445780635b466457146105775780635cda91ca146105aa5780637065cb48146105d6576101ed565b806346bf1075146104c95780634780eac1146104f35780634f72d846146105085780635118af5a1461051d576101ed565b80631d0248a9116101b65780631d0248a9146102f95780632f54bf6e146103445780633843a475146103775780633dbea0fd14610498576101ed565b80623de4e2146101f25780630df95cc01461024f57806311c89b101461027f578063173825d9146102c6576101ed565b366101ed57005b600080fd5b3480156101fe57600080fd5b506102376004803603608081101561021557600080fd5b506001600160a01b038135169060208101359060408101359060600135610a60565b60405191825260208201526040908101905180910390f35b34801561025b57600080fd5b5061027d6004803603602081101561027257600080fd5b503561ffff16610a9d565b005b34801561028b57600080fd5b506102b2600480360360208110156102a257600080fd5b50356001600160a01b0316610b4b565b604051901515815260200160405180910390f35b3480156102d257600080fd5b5061027d600480360360208110156102e957600080fd5b50356001600160a01b0316610b62565b34801561030557600080fd5b50610237600480360360a081101561031c57600080fd5b506001600160a01b038135169060208101359060408101359060608101359060800135610bcf565b34801561035057600080fd5b506102b26004803603602081101561036757600080fd5b50356001600160a01b0316610fa2565b34801561038357600080fd5b5061027d6004803603606081101561039a57600080fd5b8101906020810181356401000000008111156103b557600080fd5b8201836020820111156103c757600080fd5b803590602001918460018302840111640100000000831117156103e957600080fd5b91939092909160208101903564010000000081111561040757600080fd5b82018360208201111561041957600080fd5b8035906020019184600183028401116401000000008311171561043b57600080fd5b91939092909160208101903564010000000081111561045957600080fd5b82018360208201111561046b57600080fd5b8035906020019184600183028401116401000000008311171561048d57600080fd5b509092509050610fba565b3480156104a457600080fd5b506104ad6110d5565b6040516001600160a01b03909116815260200160405180910390f35b3480156104d557600080fd5b5061027d600480360360208110156104ec57600080fd5b50356110e4565b3480156104ff57600080fd5b506104ad6111d2565b34801561051457600080fd5b506104ad6111f6565b34801561052957600080fd5b5061053261121a565b60405190815260200160405180910390f35b34801561055057600080fd5b5061027d6004803603602081101561056757600080fd5b50356001600160a01b031661121f565b34801561058357600080fd5b5061027d6004803603602081101561059a57600080fd5b50356001600160a01b03166114d6565b3480156105b657600080fd5b506105bf611571565b60405161ffff909116815260200160405180910390f35b3480156105e257600080fd5b5061027d600480360360208110156105f957600080fd5b50356001600160a01b0316611593565b34801561061557600080fd5b506102b26004803603602081101561062c57600080fd5b50356115fd565b34801561063f57600080fd5b506102376004803603608081101561065657600080fd5b5080359060208101359060408101359060600135611662565b34801561067b57600080fd5b50610237600480360360a081101561069257600080fd5b8101906020810181356401000000008111156106ad57600080fd5b8201836020820111156106bf57600080fd5b803590602001918460018302840111640100000000831117156106e157600080fd5b91935091506001600160a01b038135169060208101359060408101359060600135611a6f565b34801561071357600080fd5b506105326004803603602081101561072a57600080fd5b50356001600160a01b0316612438565b34801561074657600080fd5b5061074f61257c565b60405160208082528190810183818151815260200191508051906020019060200280838360005b8381101561078e578082015183820152602001610776565b505050509050019250505060405180910390f35b3480156107ae57600080fd5b506104ad612924565b3480156107c357600080fd5b506104ad600480360360208110156107da57600080fd5b50356001600160a01b0316612948565b3480156107f657600080fd5b506104ad6004803603602081101561080d57600080fd5b50356001600160a01b0316612ab7565b6104ad612b89565b6108546004803603608081101561083b57600080fd5b5080359060208101359060408101359060600135612d36565b60405180848152602001838152602001828152602001935050505060405180910390f35b34801561088457600080fd5b506102376004803603608081101561089b57600080fd5b506001600160a01b0381351690602081013590604081013590606001356131cd565b3480156108c957600080fd5b50610532600480360360208110156108e057600080fd5b8101906020810181356401000000008111156108fb57600080fd5b82018360208201111561090d57600080fd5b8035906020019184600183028401116401000000008311171561092f57600080fd5b91908080601f01602080910402602001604051908101604052818152929190602084018383808284376000920191909152509295506131fd945050505050565b34801561097b57600080fd5b506104ad61320b565b6102376004803603606081101561099a57600080fd5b8101906020810181356401000000008111156109b557600080fd5b8201836020820111156109c757600080fd5b803590602001918460018302840111640100000000831117156109e957600080fd5b91935091508035906020013561322f565b348015610a0657600080fd5b50610854600480360360c0811015610a1d57600080fd5b506001600160a01b038135169060208101359060408101359060608101359060808101359060a001356137ee565b348015610a5757600080fd5b50610532613efe565b600080610a90867f0000000000000000000000000000000000000000000000000000000000000000878787613f03565b9150915094509492505050565b610aae60003363ffffffff6142f516565b610afe5760405162461bcd60e51b815260206004820152600960248201527f4e4f54204f574e45520000000000000000000000000000000000000000000000604482015260640160405180910390fd5b6002805461ffff90921674010000000000000000000000000000000000000000027fffffffffffffffffffff0000ffffffffffffffffffffffffffffffffffffffff909216919091179055565b6002546001600160a01b038281169116145b919050565b610b7360003363ffffffff6142f516565b610bc35760405162461bcd60e51b815260206004820152600960248201527f4e4f54204f574e45520000000000000000000000000000000000000000000000604482015260640160405180910390fd5b610bcc81614311565b50565b60008060007f00000000000000000000000000000000000000000000000000000000000000006001600160a01b031663e6a439057f00000000000000000000000000000000000000000000000000000000000000008a6040516001600160e01b031960e085901b1681526001600160a01b0392831660048201529116602482015260440160206040518083038186803b158015610c6b57600080fd5b505afa158015610c7f573d6000803e3d6000fd5b505050506040513d6020811015610c9557600080fd5b81019080805193505050506001600160a01b038116610cfa5760405162461bcd60e51b815260206004820152601360248201527f5041495220444f4553204e4f5420455849535400000000000000000000000000604482015260640160405180910390fd5b806001600160a01b03166323b872dd33308a6040516001600160e01b031960e086901b1681526001600160a01b0393841660048201529190921660248201526044810191909152606401602060405180830381600087803b158015610d5e57600080fd5b505af1158015610d72573d6000803e3d6000fd5b505050506040513d6020811015610d8857600080fd5b8101908080515050506001600160a01b038216905063095ea7b37f0000000000000000000000000000000000000000000000000000000000000000896040516001600160e01b031960e085901b1681526001600160a01b0390921660048301526024820152604401602060405180830381600087803b158015610e0a57600080fd5b505af1158015610e1e573d6000803e3d6000fd5b505050506040513d6020811015610e3457600080fd5b81019080805150506001600160a01b037f000000000000000000000000000000000000000000000000000000000000000016915063baa2abde90507f00000000000000000000000000000000000000000000000000000000000000008a8a8a8a338b6040516001600160e01b031960e08a901b1681526001600160a01b039788166004820152958716602487015260448601949094526064850192909252608484015290921660a482015260c481019190915260e4016040805180830381600087803b158015610f0357600080fd5b505af1158015610f17573d6000803e3d6000fd5b505050506040513d6040811015610f2d57600080fd5b810190808051929190602001805193965092945033925050506001600160a01b0389167f26888318454520792ef57d9750418b1090e11747607e234775e913acb740649385858b60405180848152602001838152602001828152602001935050505060405180910390a3509550959350505050565b6000610fb4818363ffffffff6142f516565b92915050565b610fcb60003363ffffffff6142f516565b61101b5760405162461bcd60e51b815260206004820152600960248201527f4e4f54204f574e45520000000000000000000000000000000000000000000000604482015260640160405180910390fd5b7f4a5740fa5c16a9f9cbdf7b4315fed4ffa620f6c74de7530d64b264fd655d81bc86868686868660405160608082528101869052806020810160408201608083018a8a80828437600083820152601f01601f191690910185810384528881526020019050888880828437600083820152601f01601f191690910185810383528681526020019050868680828437600083820152601f01601f19169091019a50604099505050505050505050505180910390a1505050505050565b6002546001600160a01b031681565b6110f560003363ffffffff6142f516565b6111455760405162461bcd60e51b815260206004820152600960248201527f4e4f54204f574e45520000000000000000000000000000000000000000000000604482015260640160405180910390fd5b61114f6003614326565b8111156111a25760405162461bcd60e51b815260206004820152601a60248201527f5452414e53414354494f4e204e455645522048415050454e4544000000000000604482015260640160405180910390fd5b807f2ce3b121b7afbc2724c6c53c061e65d64d4883db75d2f497a715b144a840427560405160405180910390a250565b7f000000000000000000000000000000000000000000000000000000000000000081565b7f000000000000000000000000000000000000000000000000000000000000000081565b600f90565b61123060003363ffffffff6142f516565b6112805760405162461bcd60e51b815260206004820152600960248201527f4e4f54204f574e45520000000000000000000000000000000000000000000000604482015260640160405180910390fd5b6000816001600160a01b03164760405160006040518083038185875af1925050503d80600081146112cd576040513d603f01601f191681016040523d815291503d6000602084013e6112d2565b606091505b50509050806113275760405162461bcd60e51b815260206004820152601360248201527f455448205749544844524157204641494c454400000000000000000000000000604482015260640160405180910390fd5b60007f00000000000000000000000000000000000000000000000000000000000000006001600160a01b03166370a08231306040516001600160e01b031960e084901b1681526001600160a01b03909116600482015260240160206040518083038186803b15801561139857600080fd5b505afa1580156113ac573d6000803e3d6000fd5b505050506040513d60208110156113c257600080fd5b810190808051935060009250506001600160a01b037f000000000000000000000000000000000000000000000000000000000000000016905063a9059cbb85846040516001600160e01b031960e085901b1681526001600160a01b0390921660048301526024820152604401602060405180830381600087803b15801561144857600080fd5b505af115801561145c573d6000803e3d6000fd5b505050506040513d602081101561147257600080fd5b81019080805193508392506114d09150505760405162461bcd60e51b815260206004820152601360248201527f435a50205749544844524157204641494c454400000000000000000000000000604482015260640160405180910390fd5b50505050565b6114e760003363ffffffff6142f516565b6115375760405162461bcd60e51b815260206004820152600960248201527f4e4f54204f574e45520000000000000000000000000000000000000000000000604482015260640160405180910390fd5b600280547fffffffffffffffffffffffff0000000000000000000000000000000000000000166001600160a01b0392909216919091179055565b60025474010000000000000000000000000000000000000000900461ffff1681565b6115a460003363ffffffff6142f516565b6115f45760405162461bcd60e51b815260206004820152600960248201527f4e4f54204f574e45520000000000000000000000000000000000000000000000604482015260640160405180910390fd5b610bcc8161432a565b60008161160861121a565b4201116116465760405162461bcd60e51b815260040180806020018281038252602a815260200180614a72602a913960400191505060405180910390fd5b81421080610fb45750611657613efe565b824203109050919050565b60008060007f00000000000000000000000000000000000000000000000000000000000000006001600160a01b031663e6a439057f00000000000000000000000000000000000000000000000000000000000000007f00000000000000000000000000000000000000000000000000000000000000006040516001600160e01b031960e085901b1681526001600160a01b0392831660048201529116602482015260440160206040518083038186803b15801561171e57600080fd5b505afa158015611732573d6000803e3d6000fd5b505050506040513d602081101561174857600080fd5b81019080805193505050506001600160a01b0381166117ad5760405162461bcd60e51b815260206004820152601360248201527f5041495220444f4553204e4f5420455849535400000000000000000000000000604482015260640160405180910390fd5b806001600160a01b03166323b872dd33308a6040516001600160e01b031960e086901b1681526001600160a01b0393841660048201529190921660248201526044810191909152606401602060405180830381600087803b15801561181157600080fd5b505af1158015611825573d6000803e3d6000fd5b505050506040513d602081101561183b57600080fd5b8101908080515050506001600160a01b038216905063095ea7b37f0000000000000000000000000000000000000000000000000000000000000000896040516001600160e01b031960e085901b1681526001600160a01b0390921660048301526024820152604401602060405180830381600087803b1580156118bd57600080fd5b505af11580156118d1573d6000803e3d6000fd5b505050506040513d60208110156118e757600080fd5b81019080805150506001600160a01b037f00000000000000000000000000000000000000000000000000000000000000001691506302751cec90507f0000000000000000000000000000000000000000000000000000000000000000898989338a6040516001600160e01b031960e089901b1681526001600160a01b039687166004820152602481019590955260448501939093526064840191909152909216608482015260a481019190915260c4016040805180830381600087803b1580156119b057600080fd5b505af11580156119c4573d6000803e3d6000fd5b505050506040513d60408110156119da57600080fd5b8101908080519291906020018051939650929450339250507f00000000000000000000000000000000000000000000000000000000000000006001600160a01b031690507f26888318454520792ef57d9750418b1090e11747607e234775e913acb740649385858b60405180848152602001838152602001828152602001935050505060405180910390a35094509492505050565b6000807f00000000000000000000000000000000000000000000000000000000000000006001600160a01b0316866001600160a01b03161415611ced57848410611aff5760405162461bcd60e51b815260206004820152601760248201527f494e53554646494349454e54204d415820414d4f554e54000000000000000000604482015260640160405180910390fd5b7f00000000000000000000000000000000000000000000000000000000000000006001600160a01b03166323b872dd3330876040516001600160e01b031960e086901b1681526001600160a01b0393841660048201529190921660248201526044810191909152606401602060405180830381600087803b158015611b8357600080fd5b505af1158015611b97573d6000803e3d6000fd5b505050506040513d6020811015611bad57600080fd5b8101908080515060009250611bc5915086905061433b565b90507f00000000000000000000000000000000000000000000000000000000000000006001600160a01b03166342966c68826040516001600160e01b031960e084901b1681526004810191909152602401600060405180830381600087803b158015611c3057600080fd5b505af1158015611c44573d6000803e3d6000fd5b50505050611c526003614366565b611c5c6003614326565b337f1ac4725a0b75e25a7cb3bd9088aaa06d298f422be1461473b6385be6613fd3e48b8b8b8a80886040516001600160a01b038516602082015260408101849052606081018390526080810182905260a080825281018690528060c08101888880828437600083820152601f01601f1916909101985060409750505050505050505180910390a3849250905061242d565b60007f00000000000000000000000000000000000000000000000000000000000000006001600160a01b031663e6a439057f0000000000000000000000000000000000000000000000000000000000000000896040516001600160e01b031960e085901b1681526001600160a01b0392831660048201529116602482015260440160206040518083038186803b158015611d8657600080fd5b505afa158015611d9a573d6000803e3d6000fd5b505050506040513d6020811015611db057600080fd5b8101908080516001600160a01b031693909314159250611e199150505760405162461bcd60e51b815260206004820152601360248201527f5041495220444f4553204e4f5420455849535400000000000000000000000000604482015260640160405180910390fd5b856001600160a01b03166323b872dd3330886040516001600160e01b031960e086901b1681526001600160a01b0393841660048201529190921660248201526044810191909152606401602060405180830381600087803b158015611e7d57600080fd5b505af1158015611e91573d6000803e3d6000fd5b505050506040513d6020811015611ea757600080fd5b8101908080515050506001600160a01b038716905063095ea7b37f0000000000000000000000000000000000000000000000000000000000000000876040516001600160e01b031960e085901b1681526001600160a01b0390921660048301526024820152604401602060405180830381600087803b158015611f2957600080fd5b505af1158015611f3d573d6000803e3d6000fd5b505050506040513d6020811015611f5357600080fd5b8101908080515060609250600291506040905051908082528060200260200182016040528015611f8d578160200160208202803683370190505b5090508681600081518110611f9e57fe5b60200260200101906001600160a01b031690816001600160a01b0316815250507f000000000000000000000000000000000000000000000000000000000000000081600181518110611fec57fe5b6001600160a01b0392831660209182029290920101526060907f000000000000000000000000000000000000000000000000000000000000000016638803dbee878985308a6040518663ffffffff1660e01b81526004018086815260200185815260200180602001846001600160a01b03166001600160a01b03168152602001838152602001828103825285818151815260200191508051906020019060200280838360005b838110156120aa578082015183820152602001612092565b505050509050019650505050505050600060405180830381600087803b1580156120d357600080fd5b505af11580156120e7573d6000803e3d6000fd5b505050506040513d6000823e601f3d908101601f19168201604052602081101561211057600080fd5b810190808051604051939291908464010000000082111561213057600080fd5b90830190602082018581111561214557600080fd5b825186602082028301116401000000008211171561216257600080fd5b825250602001908051906020019060200280838360005b83811015612191578082015183820152602001612179565b505050509050016040525050509050806000815181106121ad57fe5b6020026020010151935060006121c28761433b565b90507f00000000000000000000000000000000000000000000000000000000000000006001600160a01b03166342966c68826040516001600160e01b031960e084901b1681526004810191909152602401600060405180830381600087803b15801561222d57600080fd5b505af1158015612241573d6000803e3d6000fd5b505050508785101561238857886001600160a01b031663095ea7b37f000000000000000000000000000000000000000000000000000000000000000060006040516001600160e01b031960e085901b1681526001600160a01b0390921660048301526024820152604401602060405180830381600087803b1580156122c557600080fd5b505af11580156122d9573d6000803e3d6000fd5b505050506040513d60208110156122ef57600080fd5b8101908080515050506001600160a01b038a16905063a9059cbb33878b036040516001600160e01b031960e085901b1681526001600160a01b0390921660048301526024820152604401602060405180830381600087803b15801561235357600080fd5b505af1158015612367573d6000803e3d6000fd5b505050506040513d602081101561237d57600080fd5b810190808051505050505b6123926003614366565b61239c6003614326565b337f1ac4725a0b75e25a7cb3bd9088aaa06d298f422be1461473b6385be6613fd3e48d8d8d8a8d886040516001600160a01b038516602082015260408101849052606081018390526080810182905260a080825281018690528060c08101888880828437600083820152601f01601f1916909101985060409750505050505050505180910390a3925061242d915050565b965096945050505050565b600061256f61256a836001600160a01b03166395d89b416040518163ffffffff1660e01b815260040160006040518083038186803b15801561247957600080fd5b505afa15801561248d573d6000803e3d6000fd5b505050506040513d6000823e601f3d908101601f1916820160405260208110156124b657600080fd5b81019080805160405193929190846401000000008211156124d657600080fd5b9083019060208201858111156124eb57600080fd5b825164010000000081118282018810171561250557600080fd5b825250602001908051906020019080838360005b83811015612531578082015183820152602001612519565b50505050905090810190601f16801561255e5780820380516001836020036101000a031916815260200191505b5060405250505061436f565b61438e565b6402540be4000292915050565b606060007f00000000000000000000000000000000000000000000000000000000000000006001600160a01b031663574f2ba36040518163ffffffff1660e01b815260040160206040518083038186803b1580156125d957600080fd5b505afa1580156125ed573d6000803e3d6000fd5b505050506040513d602081101561260357600080fd5b8101908080519350606092508391505067ffffffffffffffff8111801561262957600080fd5b50604051908082528060200260200182016040528015612653578160200160208202803683370190505b509050600080805b8481101561288c577f00000000000000000000000000000000000000000000000000000000000000006001600160a01b0316631e3dd18b826040516001600160e01b031960e084901b168152600481019190915260240160206040518083038186803b1580156126ca57600080fd5b505afa1580156126de573d6000803e3d6000fd5b505050506040513d60208110156126f457600080fd5b8101908080519450506001600160a01b037f00000000000000000000000000000000000000000000000000000000000000008116925084169050630dfe16816040518163ffffffff1660e01b815260040160206040518083038186803b15801561275d57600080fd5b505afa158015612771573d6000803e3d6000fd5b505050506040513d602081101561278757600080fd5b8101908080516001600160a01b031693909314925082915061284b905057507f00000000000000000000000000000000000000000000000000000000000000006001600160a01b0316826001600160a01b031663d21220a76040518163ffffffff1660e01b815260040160206040518083038186803b15801561280957600080fd5b505afa15801561281d573d6000803e3d6000fd5b505050506040513d602081101561283357600080fd5b8101908080516001600160a01b031693909314925050505b15612884578184848151811061285d57fe5b60200260200101906001600160a01b031690816001600160a01b0316815250506001830192505b60010161265b565b508167ffffffffffffffff811180156128a457600080fd5b506040519080825280602002602001820160405280156128ce578160200160208202803683370190505b50945060005b8481101561291c578381815181106128e857fe5b60200260200101518682815181106128fc57fe5b6001600160a01b03909216602092830291909101909101526001016128d4565b505050505090565b7f000000000000000000000000000000000000000000000000000000000000000081565b60007f00000000000000000000000000000000000000000000000000000000000000006001600160a01b031663c9c653967f0000000000000000000000000000000000000000000000000000000000000000846040516001600160e01b031960e085901b1681526001600160a01b03928316600482015291166024820152604401602060405180830381600087803b1580156129e357600080fd5b505af11580156129f7573d6000803e3d6000fd5b505050506040513d6020811015612a0d57600080fd5b81019080805193505050506001600160a01b038116612a725760405162461bcd60e51b815260206004820152601060248201527f50414952204e4f54204352454154454400000000000000000000000000000000604482015260640160405180910390fd5b816001600160a01b0316816001600160a01b03167ffca444385bca8c70a5c08645f5d892d709ef4bbc7e0efff99c8118c5e1e497cd60405160405180910390a3919050565b60007f00000000000000000000000000000000000000000000000000000000000000006001600160a01b031663e6a439057f0000000000000000000000000000000000000000000000000000000000000000846040516001600160e01b031960e085901b1681526001600160a01b0392831660048201529116602482015260440160206040518083038186803b158015612b5057600080fd5b505afa158015612b64573d6000803e3d6000fd5b505050506040513d6020811015612b7a57600080fd5b81019080805195945050505050565b60007f00000000000000000000000000000000000000000000000000000000000000006001600160a01b031663c9c653967f00000000000000000000000000000000000000000000000000000000000000007f00000000000000000000000000000000000000000000000000000000000000006040516001600160e01b031960e085901b1681526001600160a01b03928316600482015291166024820152604401602060405180830381600087803b158015612c4457600080fd5b505af1158015612c58573d6000803e3d6000fd5b505050506040513d6020811015612c6e57600080fd5b81019080805193505050506001600160a01b038116612cd35760405162461bcd60e51b815260206004820152601060248201527f50414952204e4f54204352454154454400000000000000000000000000000000604482015260640160405180910390fd5b7f00000000000000000000000000000000000000000000000000000000000000006001600160a01b0316816001600160a01b03167ffca444385bca8c70a5c08645f5d892d709ef4bbc7e0efff99c8118c5e1e497cd60405160405180910390a390565b60008060007f00000000000000000000000000000000000000000000000000000000000000006001600160a01b03166323b872dd33308a6040516001600160e01b031960e086901b1681526001600160a01b0393841660048201529190921660248201526044810191909152606401602060405180830381600087803b158015612dbf57600080fd5b505af1158015612dd3573d6000803e3d6000fd5b505050506040513d6020811015612de957600080fd5b81019080805150506001600160a01b037f000000000000000000000000000000000000000000000000000000000000000016915063095ea7b390507f0000000000000000000000000000000000000000000000000000000000000000896040516001600160e01b031960e085901b1681526001600160a01b0390921660048301526024820152604401602060405180830381600087803b158015612e8c57600080fd5b505af1158015612ea0573d6000803e3d6000fd5b505050506040513d6020811015612eb657600080fd5b81019080805150506001600160a01b037f000000000000000000000000000000000000000000000000000000000000000016915063f305d7199050347f00000000000000000000000000000000000000000000000000000000000000008a8a8a338b6040516001600160e01b031960e08a901b1681526001600160a01b039687166004820152602481019590955260448501939093526064840191909152909216608482015260a481019190915260c4016060604051808303818588803b158015612f8057600080fd5b505af1158015612f94573d6000803e3d6000fd5b50505050506040513d6060811015612fab57600080fd5b8101908080519291906020018051929190602001805194975092955092935050505086831015613151577f00000000000000000000000000000000000000000000000000000000000000006001600160a01b031663095ea7b37f000000000000000000000000000000000000000000000000000000000000000060006040516001600160e01b031960e085901b1681526001600160a01b0390921660048301526024820152604401602060405180830381600087803b15801561306d57600080fd5b505af1158015613081573d6000803e3d6000fd5b505050506040513d602081101561309757600080fd5b81019080805150506001600160a01b037f000000000000000000000000000000000000000000000000000000000000000016915063a9059cbb905033858a036040516001600160e01b031960e085901b1681526001600160a01b0390921660048301526024820152604401602060405180830381600087803b15801561311c57600080fd5b505af1158015613130573d6000803e3d6000fd5b505050506040513d602081101561314657600080fd5b810190808051505050505b337f00000000000000000000000000000000000000000000000000000000000000006001600160a01b03167fa69efe1c52650525df1faa35c52df11737058e15f9d1cc611760f70b3af18a7185858560405180848152602001838152602001828152602001935050505060405180910390a39450945094915050565b600080610a907f000000000000000000000000000000000000000000000000000000000000000087878787613f03565b600061256f61256a8361436f565b7f000000000000000000000000000000000000000000000000000000000000000081565b600080807f00000000000000000000000000000000000000000000000000000000000000006001600160a01b031663e6a439057f00000000000000000000000000000000000000000000000000000000000000007f00000000000000000000000000000000000000000000000000000000000000006040516001600160e01b031960e085901b1681526001600160a01b0392831660048201529116602482015260440160206040518083038186803b1580156132ea57600080fd5b505afa1580156132fe573d6000803e3d6000fd5b505050506040513d602081101561331457600080fd5b8101908080516001600160a01b03169390931415925061337d9150505760405162461bcd60e51b815260206004820152601360248201527f5041495220444f4553204e4f5420455849535400000000000000000000000000604482015260640160405180910390fd5b606060026040519080825280602002602001820160405280156133aa578160200160208202803683370190505b5090507f0000000000000000000000000000000000000000000000000000000000000000816000815181106133db57fe5b60200260200101906001600160a01b031690816001600160a01b0316815250507f00000000000000000000000000000000000000000000000000000000000000008160018151811061342957fe5b6001600160a01b0392831660209182029290920101526060907f00000000000000000000000000000000000000000000000000000000000000001663fb3bdb41348885308a6040518663ffffffff1660e01b81526004018085815260200180602001846001600160a01b03166001600160a01b03168152602001838152602001828103825285818151815260200191508051906020019060200280838360005b838110156134e15780820151838201526020016134c9565b50505050905001955050505050506000604051808303818588803b15801561350857600080fd5b505af115801561351c573d6000803e3d6000fd5b50505050506040513d6000823e601f3d908101601f19168201604052602081101561354657600080fd5b810190808051604051939291908464010000000082111561356657600080fd5b90830190602082018581111561357b57600080fd5b825186602082028301116401000000008211171561359857600080fd5b825250602001908051906020019060200280838360005b838110156135c75780820151838201526020016135af565b505050509050016040525050509050806000815181106135e357fe5b6020026020010151935060006135f88761433b565b90507f00000000000000000000000000000000000000000000000000000000000000006001600160a01b03166342966c68826040516001600160e01b031960e084901b1681526004810191909152602401600060405180830381600087803b15801561366357600080fd5b505af1158015613677573d6000803e3d6000fd5b505050506136856003614366565b34851015613730576000333487900360405160006040518083038185875af1925050503d80600081146136d4576040513d603f01601f191681016040523d815291503d6000602084013e6136d9565b606091505b505090508061372e5760405162461bcd60e51b815260206004820152601360248201527f43414c4c4552204e4f5420524546554e44454400000000000000000000000000604482015260640160405180910390fd5b505b61373a6003614326565b337f1ac4725a0b75e25a7cb3bd9088aaa06d298f422be1461473b6385be6613fd3e48b8b7f00000000000000000000000000000000000000000000000000000000000000008a8d886040516001600160a01b038516602082015260408101849052606081018390526080810182905260a080825281018690528060c08101888880828437600083820152601f01601f1916909101985060409750505050505050505180910390a39250505094509492505050565b60008060007f00000000000000000000000000000000000000000000000000000000000000006001600160a01b03166323b872dd33308b6040516001600160e01b031960e086901b1681526001600160a01b0393841660048201529190921660248201526044810191909152606401602060405180830381600087803b15801561387757600080fd5b505af115801561388b573d6000803e3d6000fd5b505050506040513d60208110156138a157600080fd5b8101908080515050506001600160a01b038a1690506323b872dd33308a6040516001600160e01b031960e086901b1681526001600160a01b0393841660048201529190921660248201526044810191909152606401602060405180830381600087803b15801561391057600080fd5b505af1158015613924573d6000803e3d6000fd5b505050506040513d602081101561393a57600080fd5b81019080805150506001600160a01b037f000000000000000000000000000000000000000000000000000000000000000016915063095ea7b390507f00000000000000000000000000000000000000000000000000000000000000008a6040516001600160e01b031960e085901b1681526001600160a01b0390921660048301526024820152604401602060405180830381600087803b1580156139dd57600080fd5b505af11580156139f1573d6000803e3d6000fd5b505050506040513d6020811015613a0757600080fd5b8101908080515050506001600160a01b038a16905063095ea7b37f0000000000000000000000000000000000000000000000000000000000000000896040516001600160e01b031960e085901b1681526001600160a01b0390921660048301526024820152604401602060405180830381600087803b158015613a8957600080fd5b505af1158015613a9d573d6000803e3d6000fd5b505050506040513d6020811015613ab357600080fd5b81019080805150506001600160a01b037f000000000000000000000000000000000000000000000000000000000000000016915063e8e3370090507f00000000000000000000000000000000000000000000000000000000000000008b8b8b8b8b338c6040516001600160e01b031960e08b901b1681526001600160a01b039889166004820152968816602488015260448701959095526064860193909352608485019190915260a484015290921660c482015260e481019190915261010401606060405180830381600087803b158015613b8d57600080fd5b505af1158015613ba1573d6000803e3d6000fd5b505050506040513d6060811015613bb757600080fd5b8101908080519291906020018051929190602001805194975092955092935050505087831015613d5d577f00000000000000000000000000000000000000000000000000000000000000006001600160a01b031663095ea7b37f000000000000000000000000000000000000000000000000000000000000000060006040516001600160e01b031960e085901b1681526001600160a01b0390921660048301526024820152604401602060405180830381600087803b158015613c7957600080fd5b505af1158015613c8d573d6000803e3d6000fd5b505050506040513d6020811015613ca357600080fd5b81019080805150506001600160a01b037f000000000000000000000000000000000000000000000000000000000000000016915063a9059cbb905033858b036040516001600160e01b031960e085901b1681526001600160a01b0390921660048301526024820152604401602060405180830381600087803b158015613d2857600080fd5b505af1158015613d3c573d6000803e3d6000fd5b505050506040513d6020811015613d5257600080fd5b810190808051505050505b86821015613ea057886001600160a01b031663095ea7b37f000000000000000000000000000000000000000000000000000000000000000060006040516001600160e01b031960e085901b1681526001600160a01b0390921660048301526024820152604401602060405180830381600087803b158015613ddd57600080fd5b505af1158015613df1573d6000803e3d6000fd5b505050506040513d6020811015613e0757600080fd5b8101908080515050506001600160a01b038a16905063a9059cbb33848a036040516001600160e01b031960e085901b1681526001600160a01b0390921660048301526024820152604401602060405180830381600087803b158015613e6b57600080fd5b505af1158015613e7f573d6000803e3d6000fd5b505050506040513d6020811015613e9557600080fd5b810190808051505050505b336001600160a01b038a167fa69efe1c52650525df1faa35c52df11737058e15f9d1cc611760f70b3af18a7185858560405180848152602001838152602001828152602001935050505060405180910390a396509650969350505050565b60b490565b600080866001600160a01b03166323b872dd3330886040516001600160e01b031960e086901b1681526001600160a01b0393841660048201529190921660248201526044810191909152606401602060405180830381600087803b158015613f6a57600080fd5b505af1158015613f7e573d6000803e3d6000fd5b505050506040513d6020811015613f9457600080fd5b8101908080515050506001600160a01b038816905063095ea7b37f0000000000000000000000000000000000000000000000000000000000000000876040516001600160e01b031960e085901b1681526001600160a01b0390921660048301526024820152604401602060405180830381600087803b15801561401657600080fd5b505af115801561402a573d6000803e3d6000fd5b505050506040513d602081101561404057600080fd5b810190808051506060925060029150604090505190808252806020026020018201604052801561407a578160200160208202803683370190505b509050878160008151811061408b57fe5b60200260200101906001600160a01b031690816001600160a01b03168152505086816001815181106140b957fe5b6001600160a01b0392831660209182029290920101526060907f0000000000000000000000000000000000000000000000000000000000000000166338ed1739888885338a6040518663ffffffff1660e01b81526004018086815260200185815260200180602001846001600160a01b03166001600160a01b03168152602001838152602001828103825285818151815260200191508051906020019060200280838360005b8381101561417757808201518382015260200161415f565b505050509050019650505050505050600060405180830381600087803b1580156141a057600080fd5b505af11580156141b4573d6000803e3d6000fd5b505050506040513d6000823e601f3d908101601f1916820160405260208110156141dd57600080fd5b81019080805160405193929190846401000000008211156141fd57600080fd5b90830190602082018581111561421257600080fd5b825186602082028301116401000000008211171561422f57600080fd5b825250602001908051906020019060200280838360005b8381101561425e578082015183820152602001614246565b5050505090500160405250505090508060008151811061427a57fe5b602002602001015193508060018151811061429157fe5b60200260200101519250876001600160a01b0316896001600160a01b03167f25f1d03755df23c30e25db2dbd3891e31ce084bdfbfc46f9fe5e446ee5f9b2d4868660405191825260208201526040908101905180910390a350509550959350505050565b600061430a836001600160a01b0384166143fe565b9392505050565b61432260008263ffffffff61441816565b5050565b5490565b61432260008263ffffffff61442d16565b6002546127107401000000000000000000000000000000000000000090910461ffff16820204900390565b80546001019055565b6000818051614382575060009050610b5d565b60208301519392505050565b6000606060016040519080825280602002602001820160405280156143bd578160200160208202803683370190505b50905082816000815181106143ce57fe5b6020026020010181815250506143e381614442565b6000815181106143ef57fe5b60200260200101519392505050565b600081815260018301602052604081205415159392505050565b600061430a836001600160a01b03841661460d565b600061430a836001600160a01b0384166146ea565b6060367fffffffffffffffffffffffffffffffffffffffffffffffffffffffffffffff9f013560ff81166040908102602001908390519050818152816042830136036020830137602081016040526000818051906020012090506000816040517f19457468657265756d205369676e6564204d6573736167653a0a3332000000006020820152603c810191909152605c01604051602081830303815290604052805190602001209050606060405190506041815260418036036020830137602081016040526000614519838363ffffffff61473316565b905061452481610b4b565b6145745760405162461bcd60e51b815260206004820152601560248201527f5369676e6572206e6f7420617574686f72697a65640000000000000000000000604482015260640160405180910390fd5b7fffffffffffffffffffffffffffffffffffffffffffffffffffffffffffffff9e3601356145a1816115fd565b6145f15760405162461bcd60e51b815260206004820152601960248201527f446174612074696d657374616d7020697320696e76616c696400000000000000604482015260640160405180910390fd5b6145ff8a8960ff168961480a565b9a9950505050505050505050565b600081815260018301602052806040812054905080156146e05783547fffffffffffffffffffffffffffffffffffffffffffffffffffffffffffffffff808301919081019060009087908390811061466157fe5b906000526020600020015490508087600001848154811061467e57fe5b906000526020600020015560008181526001888101602052840190604090205586548790806146a957fe5b6001900381819060005260206000206000910181905591558681526001880160205260409020600090556001945050505050610fb4565b6000915050610fb4565b60006146f683836143fe565b61472b578254600181018455600084815283919060209020015582546000838152600185016020526040902055506001610fb4565b506000610fb4565b600080600080845160411415614760576020850151925060408501519150606085015160001a90506147f4565b8451604014156147a8576040850151602086015193507f7fffffffffffffffffffffffffffffffffffffffffffffffffffffffffffffff8116925060ff1c601b0190506147f4565b60405162461bcd60e51b815260206004820152601f60248201527f45434453413a20696e76616c6964207369676e6174757265206c656e67746800604482015260640160405180910390fd5b614800868285856148ae565b9695505050505050565b6060806000806000806042870136035995508951865260208a51026020870101604052600094505b888510156148a057604085028101359150600093505b895184101561489557816020850260208c010151141561487d5760206040860282010135602085026020880101526001830192505b895183141561488a578894505b600184019350614848565b600185019450614832565b509398975050505050505050565b60007f7fffffffffffffffffffffffffffffff5d576e7357a4501ddfe92f46681b20a082111561490f5760405162461bcd60e51b8152600401808060200182810382526022815260200180614a2e6022913960400191505060405180910390fd5b8360ff16601b148061492457508360ff16601c145b61495f5760405162461bcd60e51b8152600401808060200182810382526022815260200180614a506022913960400191505060405180910390fd5b600060018686868660405160008152602001604052604051808581526020018460ff1660ff1681526020018381526020018281526020019450505050506020604051602081039080840390855afa1580156149be573d6000803e3d6000fd5b5050506020604051035190506001600160a01b038116614a245760405162461bcd60e51b815260206004820152601860248201527f45434453413a20696e76616c6964207369676e61747572650000000000000000604482015260640160405180910390fd5b9594505050505056fe45434453413a20696e76616c6964207369676e6174757265202773272076616c756545434453413a20696e76616c6964207369676e6174757265202776272076616c7565446174612077697468206675747572652074696d657374616d7073206973206e6f7420616c6c6f776564a2646970667358221220c2ab0988e16103101bc38334bddfc18a0ad904e9461ac95c79926ac770f835f764736f6c63430006060033",
  "linkReferences": {},
  "deployedLinkReferences": {}
}