{
  "_format": "hh-sol-artifact-1",
  "contractName": "CazzPay",
  "sourceName": "contracts/CazzPay/CazzPay.sol",
  "abi": [
    {
      "inputs": [
        {
          "internalType": "contract IUniswapV2Factory",
          "name": "_factoryContractAddr",
          "type": "address"
        },
        {
          "internalType": "contract IUniswapV2Router02",
          "name": "_routerContractAddr",
          "type": "address"
        },
        {
          "internalType": "contract ICazzPayToken",
          "name": "_czpContractAddr",
          "type": "address"
        },
        {
          "internalType": "address",
          "name": "_wethContractAddr",
          "type": "address"
        },
        {
          "internalType": "uint16",
          "name": "_paymentTransferFeesPerc",
          "type": "uint16"
        },
        {
          "internalType": "address",
          "name": "_approvedPriceFeedSigner",
          "type": "address"
        }
      ],
      "stateMutability": "nonpayable",
      "type": "constructor"
    },
    {
      "anonymous": false,
      "inputs": [
        {
          "indexed": true,
          "internalType": "address",
          "name": "otherTokenContractAddr",
          "type": "address"
        },
        {
          "indexed": true,
          "internalType": "address",
          "name": "liquidityProviderAddr",
          "type": "address"
        },
        {
          "indexed": false,
          "internalType": "uint256",
          "name": "czpAmtAdded",
          "type": "uint256"
        },
        {
          "indexed": false,
          "internalType": "uint256",
          "name": "otherTokenAmtAdded",
          "type": "uint256"
        },
        {
          "indexed": false,
          "internalType": "uint256",
          "name": "liquidityTokensMinted",
          "type": "uint256"
        }
      ],
      "name": "AddedLiquidityToCzpAndOtherTokenPair",
      "type": "event"
    },
    {
      "anonymous": false,
      "inputs": [
        {
          "indexed": true,
          "internalType": "address",
          "name": "payerWalletAddr",
          "type": "address"
        },
        {
          "indexed": false,
          "internalType": "string",
          "name": "recipientAccountId",
          "type": "string"
        },
        {
          "indexed": true,
          "internalType": "uint256",
          "name": "cazzPayTransactionId",
          "type": "uint256"
        },
        {
          "indexed": false,
          "internalType": "address",
          "name": "tokenUsedForPurchaseContractAddr",
          "type": "address"
        },
        {
          "indexed": false,
          "internalType": "uint256",
          "name": "tokenAmtUsedForPurchased",
          "type": "uint256"
        },
        {
          "indexed": false,
          "internalType": "uint256",
          "name": "fiatAmountPaid",
          "type": "uint256"
        },
        {
          "indexed": false,
          "internalType": "uint256",
          "name": "fiatAmountToPayToSeller",
          "type": "uint256"
        }
      ],
      "name": "BoughtWithCrypto",
      "type": "event"
    },
    {
      "anonymous": false,
      "inputs": [
        {
          "indexed": true,
          "internalType": "address",
          "name": "pairAddr",
          "type": "address"
        },
        {
          "indexed": true,
          "internalType": "address",
          "name": "otherTokenContractAddr",
          "type": "address"
        }
      ],
      "name": "CreatedPairWithCzpAndOtherToken",
      "type": "event"
    },
    {
      "anonymous": false,
      "inputs": [
        {
          "indexed": true,
          "internalType": "uint256",
          "name": "cazzPayTransactionId",
          "type": "uint256"
        }
      ],
      "name": "PurchaseConfirmed",
      "type": "event"
    },
    {
      "anonymous": false,
      "inputs": [
        {
          "indexed": false,
          "internalType": "string",
          "name": "sellerId",
          "type": "string"
        },
        {
          "indexed": false,
          "internalType": "string",
          "name": "email",
          "type": "string"
        },
        {
          "indexed": false,
          "internalType": "string",
          "name": "name",
          "type": "string"
        }
      ],
      "name": "SellerInfo",
      "type": "event"
    },
    {
      "anonymous": false,
      "inputs": [
        {
          "indexed": true,
          "internalType": "address",
          "name": "inputTokenContractAddr",
          "type": "address"
        },
        {
          "indexed": true,
          "internalType": "address",
          "name": "outputTokenContractAddr",
          "type": "address"
        },
        {
          "indexed": false,
          "internalType": "uint256",
          "name": "inputTokenAmt",
          "type": "uint256"
        },
        {
          "indexed": false,
          "internalType": "uint256",
          "name": "outputTokenAmt",
          "type": "uint256"
        }
      ],
      "name": "TokensSwapped",
      "type": "event"
    },
    {
      "anonymous": false,
      "inputs": [
        {
          "indexed": true,
          "internalType": "address",
          "name": "otherTokenContractAddr",
          "type": "address"
        },
        {
          "indexed": true,
          "internalType": "address",
          "name": "liquidityProviderAddr",
          "type": "address"
        },
        {
          "indexed": false,
          "internalType": "uint256",
          "name": "czpAmtWithdrawn",
          "type": "uint256"
        },
        {
          "indexed": false,
          "internalType": "uint256",
          "name": "otherTokenAmtWithdrawn",
          "type": "uint256"
        },
        {
          "indexed": false,
          "internalType": "uint256",
          "name": "liquidityTokensSubmitted",
          "type": "uint256"
        }
      ],
      "name": "WithdrawnLiquidityFromCzpAndOtherTokenPair",
      "type": "event"
    },
    {
      "inputs": [
        {
          "internalType": "uint256",
          "name": "_czpAmtToDeposit",
          "type": "uint256"
        },
        {
          "internalType": "uint256",
          "name": "_czpMinAmtToDeposit",
          "type": "uint256"
        },
        {
          "internalType": "uint256",
          "name": "_ethMinAmtToDeposit",
          "type": "uint256"
        },
        {
          "internalType": "uint256",
          "name": "_deadline",
          "type": "uint256"
        }
      ],
      "name": "addLiquidityToCzpAndEthPair",
      "outputs": [
        {
          "internalType": "uint256",
          "name": "czpAmtAdded",
          "type": "uint256"
        },
        {
          "internalType": "uint256",
          "name": "ethAmtAdded",
          "type": "uint256"
        },
        {
          "internalType": "uint256",
          "name": "liquidityTokensMinted",
          "type": "uint256"
        }
      ],
      "stateMutability": "payable",
      "type": "function"
    },
    {
      "inputs": [
        {
          "internalType": "address",
          "name": "_otherTokenContractAddr",
          "type": "address"
        },
        {
          "internalType": "uint256",
          "name": "_czpAmtToDeposit",
          "type": "uint256"
        },
        {
          "internalType": "uint256",
          "name": "_otherTokenAmtToDeposit",
          "type": "uint256"
        },
        {
          "internalType": "uint256",
          "name": "_czpMinAmtToDeposit",
          "type": "uint256"
        },
        {
          "internalType": "uint256",
          "name": "_otherTokenMinAmtToDeposit",
          "type": "uint256"
        },
        {
          "internalType": "uint256",
          "name": "_deadline",
          "type": "uint256"
        }
      ],
      "name": "addLiquidityToCzpAndOtherTokenPair",
      "outputs": [
        {
          "internalType": "uint256",
          "name": "czpAmtAdded",
          "type": "uint256"
        },
        {
          "internalType": "uint256",
          "name": "otherTokenAmtAdded",
          "type": "uint256"
        },
        {
          "internalType": "uint256",
          "name": "liquidityTokensMinted",
          "type": "uint256"
        }
      ],
      "stateMutability": "nonpayable",
      "type": "function"
    },
    {
      "inputs": [
        {
          "internalType": "address",
          "name": "_newOwner",
          "type": "address"
        }
      ],
      "name": "addOwner",
      "outputs": [],
      "stateMutability": "nonpayable",
      "type": "function"
    },
    {
      "inputs": [],
      "name": "approvedPriceFeedSigner",
      "outputs": [
        {
          "internalType": "address",
          "name": "",
          "type": "address"
        }
      ],
      "stateMutability": "view",
      "type": "function"
    },
    {
      "inputs": [
        {
          "internalType": "string",
          "name": "_recipientAccountId",
          "type": "string"
        },
        {
          "internalType": "address",
          "name": "_otherTokenContractAddr",
          "type": "address"
        },
        {
          "internalType": "uint256",
          "name": "_otherTokenMaxAmtToPayWith",
          "type": "uint256"
        },
        {
          "internalType": "uint256",
          "name": "_fiatAmtToPay",
          "type": "uint256"
        },
        {
          "internalType": "uint256",
          "name": "_deadline",
          "type": "uint256"
        }
      ],
      "name": "buyWithCryptoToken",
      "outputs": [
        {
          "internalType": "uint256",
          "name": "otherTokenAmtUsed",
          "type": "uint256"
        },
        {
          "internalType": "uint256",
          "name": "fiatAmountPaid",
          "type": "uint256"
        }
      ],
      "stateMutability": "nonpayable",
      "type": "function"
    },
    {
      "inputs": [
        {
          "internalType": "string",
          "name": "_recipientAccountId",
          "type": "string"
        },
        {
          "internalType": "uint256",
          "name": "_fiatAmtToPay",
          "type": "uint256"
        },
        {
          "internalType": "uint256",
          "name": "_deadline",
          "type": "uint256"
        }
      ],
      "name": "buyWithEth",
      "outputs": [
        {
          "internalType": "uint256",
          "name": "ethAmtUsed",
          "type": "uint256"
        },
        {
          "internalType": "uint256",
          "name": "fiatAmountPaid",
          "type": "uint256"
        }
      ],
      "stateMutability": "payable",
      "type": "function"
    },
    {
      "inputs": [],
      "name": "createPairWithCzpAndEth",
      "outputs": [
        {
          "internalType": "address",
          "name": "pairAddr",
          "type": "address"
        }
      ],
      "stateMutability": "payable",
      "type": "function"
    },
    {
      "inputs": [
        {
          "internalType": "address",
          "name": "_otherTokenContractAddr",
          "type": "address"
        }
      ],
      "name": "createPairWithCzpAndOtherToken",
      "outputs": [
        {
          "internalType": "address",
          "name": "pairAddr",
          "type": "address"
        }
      ],
      "stateMutability": "nonpayable",
      "type": "function"
    },
    {
      "inputs": [],
      "name": "czpContract",
      "outputs": [
        {
          "internalType": "contract ICazzPayToken",
          "name": "",
          "type": "address"
        }
      ],
      "stateMutability": "view",
      "type": "function"
    },
    {
      "inputs": [],
      "name": "factoryContract",
      "outputs": [
        {
          "internalType": "contract IUniswapV2Factory",
          "name": "",
          "type": "address"
        }
      ],
      "stateMutability": "view",
      "type": "function"
    },
    {
      "inputs": [],
      "name": "getAllPairsWithCzpAndOtherToken",
      "outputs": [
        {
          "internalType": "address[]",
          "name": "pairAddrsWithCzpAndOtherToken",
          "type": "address[]"
        }
      ],
      "stateMutability": "view",
      "type": "function"
    },
    {
      "inputs": [
        {
          "internalType": "address",
          "name": "_otherTokenContractAddr",
          "type": "address"
        }
      ],
      "name": "getCzpAndOtherTokenPairAddr",
      "outputs": [
        {
          "internalType": "address",
          "name": "poolAddr",
          "type": "address"
        }
      ],
      "stateMutability": "view",
      "type": "function"
    },
    {
      "inputs": [],
      "name": "getMaxBlockTimestampDelay",
      "outputs": [
        {
          "internalType": "uint256",
          "name": "",
          "type": "uint256"
        }
      ],
      "stateMutability": "pure",
      "type": "function"
    },
    {
      "inputs": [],
      "name": "getMaxDataTimestampDelay",
      "outputs": [
        {
          "internalType": "uint256",
          "name": "",
          "type": "uint256"
        }
      ],
      "stateMutability": "pure",
      "type": "function"
    },
    {
      "inputs": [
        {
          "internalType": "address",
          "name": "_tokenContractAddr",
          "type": "address"
        }
      ],
      "name": "getPriceOfTokenInCzpWithTokenAddress",
      "outputs": [
        {
          "internalType": "uint256",
          "name": "",
          "type": "uint256"
        }
      ],
      "stateMutability": "view",
      "type": "function"
    },
    {
      "inputs": [
        {
          "internalType": "string",
          "name": "_tokenSymbol",
          "type": "string"
        }
      ],
      "name": "getPriceOfTokenInCzpWithTokenSymbol",
      "outputs": [
        {
          "internalType": "uint256",
          "name": "",
          "type": "uint256"
        }
      ],
      "stateMutability": "view",
      "type": "function"
    },
    {
      "inputs": [
        {
          "internalType": "address",
          "name": "_ownerToVerify",
          "type": "address"
        }
      ],
      "name": "isOwner",
      "outputs": [
        {
          "internalType": "bool",
          "name": "",
          "type": "bool"
        }
      ],
      "stateMutability": "view",
      "type": "function"
    },
    {
      "inputs": [
        {
          "internalType": "address",
          "name": "_receivedSigner",
          "type": "address"
        }
      ],
      "name": "isSignerAuthorized",
      "outputs": [
        {
          "internalType": "bool",
          "name": "",
          "type": "bool"
        }
      ],
      "stateMutability": "view",
      "type": "function"
    },
    {
      "inputs": [
        {
          "internalType": "uint256",
          "name": "",
          "type": "uint256"
        }
      ],
      "name": "isTimestampValid",
      "outputs": [
        {
          "internalType": "bool",
          "name": "",
          "type": "bool"
        }
      ],
      "stateMutability": "pure",
      "type": "function"
    },
    {
      "inputs": [
        {
          "internalType": "address[]",
          "name": "_pairAddrsToManuallyAdd",
          "type": "address[]"
        }
      ],
      "name": "manuallyAddPairWithCzpAndOtherToken",
      "outputs": [],
      "stateMutability": "nonpayable",
      "type": "function"
    },
    {
      "inputs": [],
      "name": "paymentTransferFeesPerc",
      "outputs": [
        {
          "internalType": "uint16",
          "name": "",
          "type": "uint16"
        }
      ],
      "stateMutability": "view",
      "type": "function"
    },
    {
      "inputs": [
        {
          "internalType": "address",
          "name": "_ownerToRemove",
          "type": "address"
        }
      ],
      "name": "removeOwner",
      "outputs": [],
      "stateMutability": "nonpayable",
      "type": "function"
    },
    {
      "inputs": [],
      "name": "routerContract",
      "outputs": [
        {
          "internalType": "contract IUniswapV2Router02",
          "name": "",
          "type": "address"
        }
      ],
      "stateMutability": "view",
      "type": "function"
    },
    {
      "inputs": [
        {
          "internalType": "address",
          "name": "_newApprovedPriceFeedSigner",
          "type": "address"
        }
      ],
      "name": "setApprovedPriceFeedSigner",
      "outputs": [],
      "stateMutability": "nonpayable",
      "type": "function"
    },
    {
      "inputs": [
        {
          "internalType": "uint16",
          "name": "_newPaymentTransferFeesPerc",
          "type": "uint16"
        }
      ],
      "name": "setPaymentTransferFeesPerc",
      "outputs": [],
      "stateMutability": "nonpayable",
      "type": "function"
    },
    {
      "inputs": [
        {
          "internalType": "uint256",
          "name": "_cazzPayTransactionIdToConfirm",
          "type": "uint256"
        }
      ],
      "name": "setPurchaseConfirmation",
      "outputs": [],
      "stateMutability": "nonpayable",
      "type": "function"
    },
    {
      "inputs": [
        {
          "internalType": "string",
          "name": "_sellerId",
          "type": "string"
        },
        {
          "internalType": "string",
          "name": "_email",
          "type": "string"
        },
        {
          "internalType": "string",
          "name": "_name",
          "type": "string"
        }
      ],
      "name": "storeSellerInfo",
      "outputs": [],
      "stateMutability": "nonpayable",
      "type": "function"
    },
    {
      "inputs": [
        {
          "internalType": "address",
          "name": "_otherTokenContractAddr",
          "type": "address"
        },
        {
          "internalType": "uint256",
          "name": "_czpAmt",
          "type": "uint256"
        },
        {
          "internalType": "uint256",
          "name": "_otherTokenMinAmt",
          "type": "uint256"
        },
        {
          "internalType": "uint256",
          "name": "_deadline",
          "type": "uint256"
        }
      ],
      "name": "swapCzpForOtherTokens",
      "outputs": [
        {
          "internalType": "uint256",
          "name": "czpAmtUsed",
          "type": "uint256"
        },
        {
          "internalType": "uint256",
          "name": "otherTokenAmtReceived",
          "type": "uint256"
        }
      ],
      "stateMutability": "nonpayable",
      "type": "function"
    },
    {
      "inputs": [
        {
          "internalType": "address",
          "name": "_otherTokenContractAddr",
          "type": "address"
        },
        {
          "internalType": "uint256",
          "name": "_otherTokenAmt",
          "type": "uint256"
        },
        {
          "internalType": "uint256",
          "name": "_czpMinAmt",
          "type": "uint256"
        },
        {
          "internalType": "uint256",
          "name": "_deadline",
          "type": "uint256"
        }
      ],
      "name": "swapOtherTokensForCzp",
      "outputs": [
        {
          "internalType": "uint256",
          "name": "otherTokenAmtUsed",
          "type": "uint256"
        },
        {
          "internalType": "uint256",
          "name": "czpAmtReceived",
          "type": "uint256"
        }
      ],
      "stateMutability": "nonpayable",
      "type": "function"
    },
    {
      "inputs": [],
      "name": "wethContract",
      "outputs": [
        {
          "internalType": "contract IERC20",
          "name": "",
          "type": "address"
        }
      ],
      "stateMutability": "view",
      "type": "function"
    },
    {
      "inputs": [
        {
          "internalType": "address payable",
          "name": "_withdrawToAddr",
          "type": "address"
        }
      ],
      "name": "withdraw",
      "outputs": [],
      "stateMutability": "nonpayable",
      "type": "function"
    },
    {
      "inputs": [
        {
          "internalType": "uint256",
          "name": "_liquidityToWithdraw",
          "type": "uint256"
        },
        {
          "internalType": "uint256",
          "name": "_minCzpToReceive",
          "type": "uint256"
        },
        {
          "internalType": "uint256",
          "name": "_minEthToReceive",
          "type": "uint256"
        },
        {
          "internalType": "uint256",
          "name": "_deadline",
          "type": "uint256"
        }
      ],
      "name": "withdrawLiquidityForCzpAndEth",
      "outputs": [
        {
          "internalType": "uint256",
          "name": "czpReceived",
          "type": "uint256"
        },
        {
          "internalType": "uint256",
          "name": "ethReceived",
          "type": "uint256"
        }
      ],
      "stateMutability": "nonpayable",
      "type": "function"
    },
    {
      "inputs": [
        {
          "internalType": "address",
          "name": "_otherTokenContractAddr",
          "type": "address"
        },
        {
          "internalType": "uint256",
          "name": "_liquidityToWithdraw",
          "type": "uint256"
        },
        {
          "internalType": "uint256",
          "name": "_minCzpToReceive",
          "type": "uint256"
        },
        {
          "internalType": "uint256",
          "name": "_minOtherTokenToReceive",
          "type": "uint256"
        },
        {
          "internalType": "uint256",
          "name": "_deadline",
          "type": "uint256"
        }
      ],
      "name": "withdrawLiquidityForCzpAndOtherToken",
      "outputs": [
        {
          "internalType": "uint256",
          "name": "czpReceived",
          "type": "uint256"
        },
        {
          "internalType": "uint256",
          "name": "otherTokenReceived",
          "type": "uint256"
        }
      ],
      "stateMutability": "nonpayable",
      "type": "function"
    },
    {
      "stateMutability": "payable",
      "type": "receive"
    }
  ],
  "bytecode": "0x6101006040523480156200001257600080fd5b5060405162004fb238038062004fb2833981810160405260c08110156200003857600080fd5b50805160208083015160408401516060850151608086015160a0909601519495929491939092919081906200007b90600090339062004605620000eb821b17901c565b50600280546001600160601b03196060998a1b811660805297891b881660a05294881b871660e0529490961b90941660c05261ffff16600160a01b0261ffff60a01b196001600160a01b039095166001600160a01b03199092169190911793909316929092179091555062000184565b60006200010b836001600160a01b0384166001600160e01b036200011416565b90505b92915050565b60006200012b83836001600160e01b036200016c16565b62000163575081546001818101845560008481526020808220909301849055845484825282860190935260409020919091556200010e565b5060006200010e565b60009081526001919091016020526040902054151590565b60805160601c60a05160601c60c05160601c60e05160601c614c7f620003336000398061121c528061166652806119a1528061287e52806129be5280612a695280612f785280613061528061326952806133935280613744525080610b015280610c755280610ee1528061135f528061140d528061164552806118d15280611a215280611aae5280611b765280611ccd5280611f6d5280612173528061258d52806125e2528061278b528061285d5280612a485280612b125280612bc85280612cc15280612da45280612e765280612f5752806130e4528061324852806133e152806135e0528061380952806138b35280613a025280613ba65280613c995280613d6b5280613f8f525080610e145280610eb65280611240528061180452806118a65280611e705280611fb4528061220b5280612bf35280612c955280612dd352806134285280613a2d5280613ad95280613b7b5280613cc85280613e2c528061418852806142ac525080610c4652806116165280611c9e52806125b3528061275c528061282e5280612a195280612f2852806131f1528061321952806137da5280613f605250614c7f6000f3fe6080604052600436106102015760003560e01c8063750582051161011d578063a7d98df2116100b0578063b10993571161007f578063e6fcdc8311610064578063e6fcdc8314610a1c578063ee3a185614610a92578063f31a210a14610ae357610208565b8063b109935714610955578063de11c94a14610a0757610208565b8063a7d98df214610838578063abce7c4f14610840578063b0db3d4414610893578063b10469d0146108d857610208565b80638f624b36116100ec5780638f624b3614610755578063939ff61d146107bd578063949064c5146107d2578063a6e24d271461080557610208565b806375058205146106245780637590c96b1461064e578063821a813c1461068a57806385d7a44f1461072257610208565b806346bf10751161019557806351cff8d91161016457806351cff8d91461055f5780635b466457146105925780635cda91ca146105c55780637065cb48146105f157610208565b806346bf1075146104e45780634780eac11461050e5780634f72d846146105235780635118af5a1461053857610208565b80631d0248a9116101d15780631d0248a9146103145780632f54bf6e1461035f5780633843a475146103925780633dbea0fd146104b357610208565b80623de4e21461020d5780630df95cc01461026a57806311c89b101461029a578063173825d9146102e157610208565b3661020857005b600080fd5b34801561021957600080fd5b506102526004803603608081101561023057600080fd5b506001600160a01b038135169060208101359060408101359060600135610af8565b60405191825260208201526040908101905180910390f35b34801561027657600080fd5b506102986004803603602081101561028d57600080fd5b503561ffff16610b35565b005b3480156102a657600080fd5b506102cd600480360360208110156102bd57600080fd5b50356001600160a01b0316610bcf565b604051901515815260200160405180910390f35b3480156102ed57600080fd5b506102986004803603602081101561030457600080fd5b50356001600160a01b0316610be6565b34801561032057600080fd5b50610252600480360360a081101561033757600080fd5b506001600160a01b038135169060208101359060408101359060608101359060800135610c3f565b34801561036b57600080fd5b506102cd6004803603602081101561038257600080fd5b50356001600160a01b0316611012565b34801561039e57600080fd5b50610298600480360360608110156103b557600080fd5b8101906020810181356401000000008111156103d057600080fd5b8201836020820111156103e257600080fd5b8035906020019184600183028401116401000000008311171561040457600080fd5b91939092909160208101903564010000000081111561042257600080fd5b82018360208201111561043457600080fd5b8035906020019184600183028401116401000000008311171561045657600080fd5b91939092909160208101903564010000000081111561047457600080fd5b82018360208201111561048657600080fd5b803590602001918460018302840111640100000000831117156104a857600080fd5b50909250905061102a565b3480156104bf57600080fd5b506104c8611131565b6040516001600160a01b03909116815260200160405180910390f35b3480156104f057600080fd5b506102986004803603602081101561050757600080fd5b5035611140565b34801561051a57600080fd5b506104c861121a565b34801561052f57600080fd5b506104c861123e565b34801561054457600080fd5b5061054d611262565b60405190815260200160405180910390f35b34801561056b57600080fd5b506102986004803603602081101561058257600080fd5b50356001600160a01b0316611267565b34801561059e57600080fd5b50610298600480360360208110156105b557600080fd5b50356001600160a01b031661150a565b3480156105d157600080fd5b506105da611591565b60405161ffff909116815260200160405180910390f35b3480156105fd57600080fd5b506102986004803603602081101561061457600080fd5b50356001600160a01b03166115b3565b34801561063057600080fd5b506102cd6004803603602081101561064757600080fd5b5035611609565b34801561065a57600080fd5b506102526004803603608081101561067157600080fd5b508035906020810135906040810135906060013561160f565b34801561069657600080fd5b50610252600480360360a08110156106ad57600080fd5b8101906020810181356401000000008111156106c857600080fd5b8201836020820111156106da57600080fd5b803590602001918460018302840111640100000000831117156106fc57600080fd5b91935091506001600160a01b038135169060208101359060408101359060600135611a1c565b34801561072e57600080fd5b5061054d6004803603602081101561074557600080fd5b50356001600160a01b03166123e5565b34801561076157600080fd5b5061076a612529565b60405160208082528190810183818151815260200191508051906020019060200280838360005b838110156107a9578082015183820152602001610791565b505050509050019250505060405180910390f35b3480156107c957600080fd5b506104c861258b565b3480156107de57600080fd5b506104c8600480360360208110156107f557600080fd5b50356001600160a01b03166125af565b34801561081157600080fd5b506104c86004803603602081101561082857600080fd5b50356001600160a01b0316612758565b6104c861282a565b61086f6004803603608081101561085657600080fd5b5080359060208101359060408101359060600135612a11565b60405180848152602001838152602001828152602001935050505060405180910390f35b34801561089f57600080fd5b50610252600480360360808110156108b657600080fd5b506001600160a01b0381351690602081013590604081013590606001356130dc565b3480156108e457600080fd5b50610298600480360360208110156108fb57600080fd5b81019060208101813564010000000081111561091657600080fd5b82018360208201111561092857600080fd5b8035906020019184602083028401116401000000008311171561094a57600080fd5b50909250905061310c565b34801561096157600080fd5b5061054d6004803603602081101561097857600080fd5b81019060208101813564010000000081111561099357600080fd5b8201836020820111156109a557600080fd5b803590602001918460018302840111640100000000831117156109c757600080fd5b91908080601f01602080910402602001604051908101604052818152929190602084018383808284376000920191909152509295506131e1945050505050565b348015610a1357600080fd5b506104c86131ef565b61025260048036036060811015610a3257600080fd5b810190602081018135640100000000811115610a4d57600080fd5b820183602082011115610a5f57600080fd5b80359060200191846001830284011164010000000083111715610a8157600080fd5b919350915080359060200135613213565b348015610a9e57600080fd5b5061086f600480360360c0811015610ab557600080fd5b506001600160a01b038135169060208101359060408101359060608101359060808101359060a001356137d2565b348015610aef57600080fd5b5061054d6140d6565b600080610b28867f00000000000000000000000000000000000000000000000000000000000000008787876140db565b9150915094509492505050565b610b4660003363ffffffff6144cd16565b610b825760405162461bcd60e51b81526020600482015260096024820152682727aa1027aba722a960b91b604482015260640160405180910390fd5b6002805461ffff90921674010000000000000000000000000000000000000000027fffffffffffffffffffff0000ffffffffffffffffffffffffffffffffffffffff909216919091179055565b6002546001600160a01b038281169116145b919050565b610bf760003363ffffffff6144cd16565b610c335760405162461bcd60e51b81526020600482015260096024820152682727aa1027aba722a960b91b604482015260640160405180910390fd5b610c3c816144e9565b50565b60008060007f00000000000000000000000000000000000000000000000000000000000000006001600160a01b031663e6a439057f00000000000000000000000000000000000000000000000000000000000000008a6040516001600160e01b031960e085901b1681526001600160a01b0392831660048201529116602482015260440160206040518083038186803b158015610cdb57600080fd5b505afa158015610cef573d6000803e3d6000fd5b505050506040513d6020811015610d0557600080fd5b81019080805193505050506001600160a01b038116610d6a5760405162461bcd60e51b815260206004820152601360248201527f5041495220444f4553204e4f5420455849535400000000000000000000000000604482015260640160405180910390fd5b806001600160a01b03166323b872dd33308a6040516001600160e01b031960e086901b1681526001600160a01b0393841660048201529190921660248201526044810191909152606401602060405180830381600087803b158015610dce57600080fd5b505af1158015610de2573d6000803e3d6000fd5b505050506040513d6020811015610df857600080fd5b8101908080515050506001600160a01b038216905063095ea7b37f0000000000000000000000000000000000000000000000000000000000000000896040516001600160e01b031960e085901b1681526001600160a01b0390921660048301526024820152604401602060405180830381600087803b158015610e7a57600080fd5b505af1158015610e8e573d6000803e3d6000fd5b505050506040513d6020811015610ea457600080fd5b81019080805150506001600160a01b037f000000000000000000000000000000000000000000000000000000000000000016915063baa2abde90507f00000000000000000000000000000000000000000000000000000000000000008a8a8a8a338b6040516001600160e01b031960e08a901b1681526001600160a01b039788166004820152958716602487015260448601949094526064850192909252608484015290921660a482015260c481019190915260e4016040805180830381600087803b158015610f7357600080fd5b505af1158015610f87573d6000803e3d6000fd5b505050506040513d6040811015610f9d57600080fd5b810190808051929190602001805193965092945033925050506001600160a01b0389167f26888318454520792ef57d9750418b1090e11747607e234775e913acb740649385858b60405180848152602001838152602001828152602001935050505060405180910390a3509550959350505050565b6000611024818363ffffffff6144cd16565b92915050565b61103b60003363ffffffff6144cd16565b6110775760405162461bcd60e51b81526020600482015260096024820152682727aa1027aba722a960b91b604482015260640160405180910390fd5b7f4a5740fa5c16a9f9cbdf7b4315fed4ffa620f6c74de7530d64b264fd655d81bc86868686868660405160608082528101869052806020810160408201608083018a8a80828437600083820152601f01601f191690910185810384528881526020019050888880828437600083820152601f01601f191690910185810383528681526020019050868680828437600083820152601f01601f19169091019a50604099505050505050505050505180910390a1505050505050565b6002546001600160a01b031681565b61115160003363ffffffff6144cd16565b61118d5760405162461bcd60e51b81526020600482015260096024820152682727aa1027aba722a960b91b604482015260640160405180910390fd5b61119760036144fe565b8111156111ea5760405162461bcd60e51b815260206004820152601a60248201527f5452414e53414354494f4e204e455645522048415050454e4544000000000000604482015260640160405180910390fd5b807f2ce3b121b7afbc2724c6c53c061e65d64d4883db75d2f497a715b144a840427560405160405180910390a250565b7f000000000000000000000000000000000000000000000000000000000000000081565b7f000000000000000000000000000000000000000000000000000000000000000081565b600f90565b61127860003363ffffffff6144cd16565b6112b45760405162461bcd60e51b81526020600482015260096024820152682727aa1027aba722a960b91b604482015260640160405180910390fd5b6000816001600160a01b03164760405160006040518083038185875af1925050503d8060008114611301576040513d603f01601f191681016040523d815291503d6000602084013e611306565b606091505b505090508061135b5760405162461bcd60e51b815260206004820152601360248201527f455448205749544844524157204641494c454400000000000000000000000000604482015260640160405180910390fd5b60007f00000000000000000000000000000000000000000000000000000000000000006001600160a01b03166370a08231306040516001600160e01b031960e084901b1681526001600160a01b03909116600482015260240160206040518083038186803b1580156113cc57600080fd5b505afa1580156113e0573d6000803e3d6000fd5b505050506040513d60208110156113f657600080fd5b810190808051935060009250506001600160a01b037f000000000000000000000000000000000000000000000000000000000000000016905063a9059cbb85846040516001600160e01b031960e085901b1681526001600160a01b0390921660048301526024820152604401602060405180830381600087803b15801561147c57600080fd5b505af1158015611490573d6000803e3d6000fd5b505050506040513d60208110156114a657600080fd5b81019080805193508392506115049150505760405162461bcd60e51b815260206004820152601360248201527f435a50205749544844524157204641494c454400000000000000000000000000604482015260640160405180910390fd5b50505050565b61151b60003363ffffffff6144cd16565b6115575760405162461bcd60e51b81526020600482015260096024820152682727aa1027aba722a960b91b604482015260640160405180910390fd5b600280547fffffffffffffffffffffffff0000000000000000000000000000000000000000166001600160a01b0392909216919091179055565b60025474010000000000000000000000000000000000000000900461ffff1681565b6115c460003363ffffffff6144cd16565b6116005760405162461bcd60e51b81526020600482015260096024820152682727aa1027aba722a960b91b604482015260640160405180910390fd5b610c3c81614502565b50600190565b60008060007f00000000000000000000000000000000000000000000000000000000000000006001600160a01b031663e6a439057f00000000000000000000000000000000000000000000000000000000000000007f00000000000000000000000000000000000000000000000000000000000000006040516001600160e01b031960e085901b1681526001600160a01b0392831660048201529116602482015260440160206040518083038186803b1580156116cb57600080fd5b505afa1580156116df573d6000803e3d6000fd5b505050506040513d60208110156116f557600080fd5b81019080805193505050506001600160a01b03811661175a5760405162461bcd60e51b815260206004820152601360248201527f5041495220444f4553204e4f5420455849535400000000000000000000000000604482015260640160405180910390fd5b806001600160a01b03166323b872dd33308a6040516001600160e01b031960e086901b1681526001600160a01b0393841660048201529190921660248201526044810191909152606401602060405180830381600087803b1580156117be57600080fd5b505af11580156117d2573d6000803e3d6000fd5b505050506040513d60208110156117e857600080fd5b8101908080515050506001600160a01b038216905063095ea7b37f0000000000000000000000000000000000000000000000000000000000000000896040516001600160e01b031960e085901b1681526001600160a01b0390921660048301526024820152604401602060405180830381600087803b15801561186a57600080fd5b505af115801561187e573d6000803e3d6000fd5b505050506040513d602081101561189457600080fd5b81019080805150506001600160a01b037f00000000000000000000000000000000000000000000000000000000000000001691506302751cec90507f0000000000000000000000000000000000000000000000000000000000000000898989338a6040516001600160e01b031960e089901b1681526001600160a01b039687166004820152602481019590955260448501939093526064840191909152909216608482015260a481019190915260c4016040805180830381600087803b15801561195d57600080fd5b505af1158015611971573d6000803e3d6000fd5b505050506040513d604081101561198757600080fd5b8101908080519291906020018051939650929450339250507f00000000000000000000000000000000000000000000000000000000000000006001600160a01b031690507f26888318454520792ef57d9750418b1090e11747607e234775e913acb740649385858b60405180848152602001838152602001828152602001935050505060405180910390a35094509492505050565b6000807f00000000000000000000000000000000000000000000000000000000000000006001600160a01b0316866001600160a01b03161415611c9a57848410611aac5760405162461bcd60e51b815260206004820152601760248201527f494e53554646494349454e54204d415820414d4f554e54000000000000000000604482015260640160405180910390fd5b7f00000000000000000000000000000000000000000000000000000000000000006001600160a01b03166323b872dd3330876040516001600160e01b031960e086901b1681526001600160a01b0393841660048201529190921660248201526044810191909152606401602060405180830381600087803b158015611b3057600080fd5b505af1158015611b44573d6000803e3d6000fd5b505050506040513d6020811015611b5a57600080fd5b8101908080515060009250611b729150869050614513565b90507f00000000000000000000000000000000000000000000000000000000000000006001600160a01b03166342966c68826040516001600160e01b031960e084901b1681526004810191909152602401600060405180830381600087803b158015611bdd57600080fd5b505af1158015611bf1573d6000803e3d6000fd5b50505050611bff600361453e565b611c0960036144fe565b337f1ac4725a0b75e25a7cb3bd9088aaa06d298f422be1461473b6385be6613fd3e48b8b8b8a80886040516001600160a01b038516602082015260408101849052606081018390526080810182905260a080825281018690528060c08101888880828437600083820152601f01601f1916909101985060409750505050505050505180910390a384925090506123da565b60007f00000000000000000000000000000000000000000000000000000000000000006001600160a01b031663e6a439057f0000000000000000000000000000000000000000000000000000000000000000896040516001600160e01b031960e085901b1681526001600160a01b0392831660048201529116602482015260440160206040518083038186803b158015611d3357600080fd5b505afa158015611d47573d6000803e3d6000fd5b505050506040513d6020811015611d5d57600080fd5b8101908080516001600160a01b031693909314159250611dc69150505760405162461bcd60e51b815260206004820152601360248201527f5041495220444f4553204e4f5420455849535400000000000000000000000000604482015260640160405180910390fd5b856001600160a01b03166323b872dd3330886040516001600160e01b031960e086901b1681526001600160a01b0393841660048201529190921660248201526044810191909152606401602060405180830381600087803b158015611e2a57600080fd5b505af1158015611e3e573d6000803e3d6000fd5b505050506040513d6020811015611e5457600080fd5b8101908080515050506001600160a01b038716905063095ea7b37f0000000000000000000000000000000000000000000000000000000000000000876040516001600160e01b031960e085901b1681526001600160a01b0390921660048301526024820152604401602060405180830381600087803b158015611ed657600080fd5b505af1158015611eea573d6000803e3d6000fd5b505050506040513d6020811015611f0057600080fd5b8101908080515060609250600291506040905051908082528060200260200182016040528015611f3a578160200160208202803683370190505b5090508681600081518110611f4b57fe5b60200260200101906001600160a01b031690816001600160a01b0316815250507f000000000000000000000000000000000000000000000000000000000000000081600181518110611f9957fe5b6001600160a01b0392831660209182029290920101526060907f000000000000000000000000000000000000000000000000000000000000000016638803dbee878985308a6040518663ffffffff1660e01b81526004018086815260200185815260200180602001846001600160a01b03166001600160a01b03168152602001838152602001828103825285818151815260200191508051906020019060200280838360005b8381101561205757808201518382015260200161203f565b505050509050019650505050505050600060405180830381600087803b15801561208057600080fd5b505af1158015612094573d6000803e3d6000fd5b505050506040513d6000823e601f3d908101601f1916820160405260208110156120bd57600080fd5b81019080805160405193929190846401000000008211156120dd57600080fd5b9083019060208201858111156120f257600080fd5b825186602082028301116401000000008211171561210f57600080fd5b825250602001908051906020019060200280838360005b8381101561213e578082015183820152602001612126565b5050505090500160405250505090508060008151811061215a57fe5b60200260200101519350600061216f87614513565b90507f00000000000000000000000000000000000000000000000000000000000000006001600160a01b03166342966c68826040516001600160e01b031960e084901b1681526004810191909152602401600060405180830381600087803b1580156121da57600080fd5b505af11580156121ee573d6000803e3d6000fd5b505050508785101561233557886001600160a01b031663095ea7b37f000000000000000000000000000000000000000000000000000000000000000060006040516001600160e01b031960e085901b1681526001600160a01b0390921660048301526024820152604401602060405180830381600087803b15801561227257600080fd5b505af1158015612286573d6000803e3d6000fd5b505050506040513d602081101561229c57600080fd5b8101908080515050506001600160a01b038a16905063a9059cbb33878b036040516001600160e01b031960e085901b1681526001600160a01b0390921660048301526024820152604401602060405180830381600087803b15801561230057600080fd5b505af1158015612314573d6000803e3d6000fd5b505050506040513d602081101561232a57600080fd5b810190808051505050505b61233f600361453e565b61234960036144fe565b337f1ac4725a0b75e25a7cb3bd9088aaa06d298f422be1461473b6385be6613fd3e48d8d8d8a8d886040516001600160a01b038516602082015260408101849052606081018390526080810182905260a080825281018690528060c08101888880828437600083820152601f01601f1916909101985060409750505050505050505180910390a392506123da915050565b965096945050505050565b600061251c612517836001600160a01b03166395d89b416040518163ffffffff1660e01b815260040160006040518083038186803b15801561242657600080fd5b505afa15801561243a573d6000803e3d6000fd5b505050506040513d6000823e601f3d908101601f19168201604052602081101561246357600080fd5b810190808051604051939291908464010000000082111561248357600080fd5b90830190602082018581111561249857600080fd5b82516401000000008111828201881017156124b257600080fd5b825250602001908051906020019080838360005b838110156124de5780820151838201526020016124c6565b50505050905090810190601f16801561250b5780820380516001836020036101000a031916815260200191505b50604052505050614547565b614566565b6402540be4000292915050565b6060600480548060200260200160405190810160405280929190818152602001828054801561258157602002820191906000526020600020905b81546001600160a01b03168152600190910190602001808311612563575b5050505050905090565b7f000000000000000000000000000000000000000000000000000000000000000081565b60007f00000000000000000000000000000000000000000000000000000000000000006001600160a01b031663c9c653967f0000000000000000000000000000000000000000000000000000000000000000846040516001600160e01b031960e085901b1681526001600160a01b03928316600482015291166024820152604401602060405180830381600087803b15801561264a57600080fd5b505af115801561265e573d6000803e3d6000fd5b505050506040513d602081101561267457600080fd5b81019080805193505050506001600160a01b0381166126d95760405162461bcd60e51b815260206004820152601060248201527f50414952204e4f54204352454154454400000000000000000000000000000000604482015260640160405180910390fd5b6004805460018101825560009182528291602090200180547fffffffffffffffffffffffff0000000000000000000000000000000000000000166001600160a01b039283161790558281169082167ffca444385bca8c70a5c08645f5d892d709ef4bbc7e0efff99c8118c5e1e497cd60405160405180910390a3919050565b60007f00000000000000000000000000000000000000000000000000000000000000006001600160a01b031663e6a439057f0000000000000000000000000000000000000000000000000000000000000000846040516001600160e01b031960e085901b1681526001600160a01b0392831660048201529116602482015260440160206040518083038186803b1580156127f157600080fd5b505afa158015612805573d6000803e3d6000fd5b505050506040513d602081101561281b57600080fd5b81019080805195945050505050565b60007f00000000000000000000000000000000000000000000000000000000000000006001600160a01b031663c9c653967f00000000000000000000000000000000000000000000000000000000000000007f00000000000000000000000000000000000000000000000000000000000000006040516001600160e01b031960e085901b1681526001600160a01b03928316600482015291166024820152604401602060405180830381600087803b1580156128e557600080fd5b505af11580156128f9573d6000803e3d6000fd5b505050506040513d602081101561290f57600080fd5b81019080805193505050506001600160a01b0381166129745760405162461bcd60e51b815260206004820152601060248201527f50414952204e4f54204352454154454400000000000000000000000000000000604482015260640160405180910390fd5b6004805460018101825560009182528291602090200180547fffffffffffffffffffffffff0000000000000000000000000000000000000000166001600160a01b039283161790557f000000000000000000000000000000000000000000000000000000000000000081169082167ffca444385bca8c70a5c08645f5d892d709ef4bbc7e0efff99c8118c5e1e497cd60405160405180910390a390565b6000806000807f00000000000000000000000000000000000000000000000000000000000000006001600160a01b031663e6a439057f00000000000000000000000000000000000000000000000000000000000000007f00000000000000000000000000000000000000000000000000000000000000006040516001600160e01b031960e085901b1681526001600160a01b0392831660048201529116602482015260440160206040518083038186803b158015612ace57600080fd5b505afa158015612ae2573d6000803e3d6000fd5b505050506040513d6020811015612af857600080fd5b810190808051935050506001600160a01b038083161591507f0000000000000000000000000000000000000000000000000000000000000000166323b872dd33308c6040516001600160e01b031960e086901b1681526001600160a01b0393841660048201529190921660248201526044810191909152606401602060405180830381600087803b158015612b8c57600080fd5b505af1158015612ba0573d6000803e3d6000fd5b505050506040513d6020811015612bb657600080fd5b81019080805150506001600160a01b037f000000000000000000000000000000000000000000000000000000000000000016915063095ea7b390507f00000000000000000000000000000000000000000000000000000000000000008b6040516001600160e01b031960e085901b1681526001600160a01b0390921660048301526024820152604401602060405180830381600087803b158015612c5957600080fd5b505af1158015612c6d573d6000803e3d6000fd5b505050506040513d6020811015612c8357600080fd5b81019080805150506001600160a01b037f000000000000000000000000000000000000000000000000000000000000000016915063f305d7199050347f00000000000000000000000000000000000000000000000000000000000000008c8c8c338d6040516001600160e01b031960e08a901b1681526001600160a01b039687166004820152602481019590955260448501939093526064840191909152909216608482015260a481019190915260c4016060604051808303818588803b158015612d4d57600080fd5b505af1158015612d61573d6000803e3d6000fd5b50505050506040513d6060811015612d7857600080fd5b8101908080519291906020018051929190602001805194995092975092955050505088851015612f1e577f00000000000000000000000000000000000000000000000000000000000000006001600160a01b031663095ea7b37f000000000000000000000000000000000000000000000000000000000000000060006040516001600160e01b031960e085901b1681526001600160a01b0390921660048301526024820152604401602060405180830381600087803b158015612e3a57600080fd5b505af1158015612e4e573d6000803e3d6000fd5b505050506040513d6020811015612e6457600080fd5b81019080805150506001600160a01b037f000000000000000000000000000000000000000000000000000000000000000016915063a9059cbb905033878c036040516001600160e01b031960e085901b1681526001600160a01b0390921660048301526024820152604401602060405180830381600087803b158015612ee957600080fd5b505af1158015612efd573d6000803e3d6000fd5b505050506040513d6020811015612f1357600080fd5b810190808051505050505b801561305e5760047f00000000000000000000000000000000000000000000000000000000000000006001600160a01b031663e6a439057f00000000000000000000000000000000000000000000000000000000000000007f00000000000000000000000000000000000000000000000000000000000000006040516001600160e01b031960e085901b1681526001600160a01b0392831660048201529116602482015260440160206040518083038186803b158015612fdd57600080fd5b505afa158015612ff1573d6000803e3d6000fd5b505050506040513d602081101561300757600080fd5b810190808051845460018101865560009586529094909350602092509050200180547fffffffffffffffffffffffff0000000000000000000000000000000000000000166001600160a01b03929092169190911790555b337f00000000000000000000000000000000000000000000000000000000000000006001600160a01b03167fa69efe1c52650525df1faa35c52df11737058e15f9d1cc611760f70b3af18a7187878760405180848152602001838152602001828152602001935050505060405180910390a350509450945094915050565b600080610b287f0000000000000000000000000000000000000000000000000000000000000000878787876140db565b61311d60003363ffffffff6144cd16565b6131595760405162461bcd60e51b81526020600482015260096024820152682727aa1027aba722a960b91b604482015260640160405180910390fd5b60005b818110156131dc57600483838381811061317257fe5b905060200201356001600160a01b03169080600181540180825580915050600190039060005260206000200180547fffffffffffffffffffffffff0000000000000000000000000000000000000000166001600160a01b039290921691909117905560010161315c565b505050565b600061251c61251783614547565b7f000000000000000000000000000000000000000000000000000000000000000081565b600080807f00000000000000000000000000000000000000000000000000000000000000006001600160a01b031663e6a439057f00000000000000000000000000000000000000000000000000000000000000007f00000000000000000000000000000000000000000000000000000000000000006040516001600160e01b031960e085901b1681526001600160a01b0392831660048201529116602482015260440160206040518083038186803b1580156132ce57600080fd5b505afa1580156132e2573d6000803e3d6000fd5b505050506040513d60208110156132f857600080fd5b8101908080516001600160a01b0316939093141592506133619150505760405162461bcd60e51b815260206004820152601360248201527f5041495220444f4553204e4f5420455849535400000000000000000000000000604482015260640160405180910390fd5b6060600260405190808252806020026020018201604052801561338e578160200160208202803683370190505b5090507f0000000000000000000000000000000000000000000000000000000000000000816000815181106133bf57fe5b60200260200101906001600160a01b031690816001600160a01b0316815250507f00000000000000000000000000000000000000000000000000000000000000008160018151811061340d57fe5b6001600160a01b0392831660209182029290920101526060907f00000000000000000000000000000000000000000000000000000000000000001663fb3bdb41348885308a6040518663ffffffff1660e01b81526004018085815260200180602001846001600160a01b03166001600160a01b03168152602001838152602001828103825285818151815260200191508051906020019060200280838360005b838110156134c55780820151838201526020016134ad565b50505050905001955050505050506000604051808303818588803b1580156134ec57600080fd5b505af1158015613500573d6000803e3d6000fd5b50505050506040513d6000823e601f3d908101601f19168201604052602081101561352a57600080fd5b810190808051604051939291908464010000000082111561354a57600080fd5b90830190602082018581111561355f57600080fd5b825186602082028301116401000000008211171561357c57600080fd5b825250602001908051906020019060200280838360005b838110156135ab578082015183820152602001613593565b505050509050016040525050509050806000815181106135c757fe5b6020026020010151935060006135dc87614513565b90507f00000000000000000000000000000000000000000000000000000000000000006001600160a01b03166342966c68826040516001600160e01b031960e084901b1681526004810191909152602401600060405180830381600087803b15801561364757600080fd5b505af115801561365b573d6000803e3d6000fd5b50505050613669600361453e565b34851015613714576000333487900360405160006040518083038185875af1925050503d80600081146136b8576040513d603f01601f191681016040523d815291503d6000602084013e6136bd565b606091505b50509050806137125760405162461bcd60e51b815260206004820152601360248201527f43414c4c4552204e4f5420524546554e44454400000000000000000000000000604482015260640160405180910390fd5b505b61371e60036144fe565b337f1ac4725a0b75e25a7cb3bd9088aaa06d298f422be1461473b6385be6613fd3e48b8b7f00000000000000000000000000000000000000000000000000000000000000008a8d886040516001600160a01b038516602082015260408101849052606081018390526080810182905260a080825281018690528060c08101888880828437600083820152601f01601f1916909101985060409750505050505050505180910390a39250505094509492505050565b6000806000807f00000000000000000000000000000000000000000000000000000000000000006001600160a01b031663e6a439057f00000000000000000000000000000000000000000000000000000000000000008c6040516001600160e01b031960e085901b1681526001600160a01b0392831660048201529116602482015260440160206040518083038186803b15801561386f57600080fd5b505afa158015613883573d6000803e3d6000fd5b505050506040513d602081101561389957600080fd5b810190808051935050506001600160a01b038083161591507f0000000000000000000000000000000000000000000000000000000000000000166323b872dd33308d6040516001600160e01b031960e086901b1681526001600160a01b0393841660048201529190921660248201526044810191909152606401602060405180830381600087803b15801561392d57600080fd5b505af1158015613941573d6000803e3d6000fd5b505050506040513d602081101561395757600080fd5b8101908080515050506001600160a01b038c1690506323b872dd33308c6040516001600160e01b031960e086901b1681526001600160a01b0393841660048201529190921660248201526044810191909152606401602060405180830381600087803b1580156139c657600080fd5b505af11580156139da573d6000803e3d6000fd5b505050506040513d60208110156139f057600080fd5b81019080805150506001600160a01b037f000000000000000000000000000000000000000000000000000000000000000016915063095ea7b390507f00000000000000000000000000000000000000000000000000000000000000008c6040516001600160e01b031960e085901b1681526001600160a01b0390921660048301526024820152604401602060405180830381600087803b158015613a9357600080fd5b505af1158015613aa7573d6000803e3d6000fd5b505050506040513d6020811015613abd57600080fd5b8101908080515050506001600160a01b038c16905063095ea7b37f00000000000000000000000000000000000000000000000000000000000000008b6040516001600160e01b031960e085901b1681526001600160a01b0390921660048301526024820152604401602060405180830381600087803b158015613b3f57600080fd5b505af1158015613b53573d6000803e3d6000fd5b505050506040513d6020811015613b6957600080fd5b81019080805150506001600160a01b037f000000000000000000000000000000000000000000000000000000000000000016915063e8e3370090507f00000000000000000000000000000000000000000000000000000000000000008d8d8d8d8d338e6040516001600160e01b031960e08b901b1681526001600160a01b039889166004820152968816602488015260448701959095526064860193909352608485019190915260a484015290921660c482015260e481019190915261010401606060405180830381600087803b158015613c4357600080fd5b505af1158015613c57573d6000803e3d6000fd5b505050506040513d6060811015613c6d57600080fd5b8101908080519291906020018051929190602001805194995092975092955050505089851015613e13577f00000000000000000000000000000000000000000000000000000000000000006001600160a01b031663095ea7b37f000000000000000000000000000000000000000000000000000000000000000060006040516001600160e01b031960e085901b1681526001600160a01b0390921660048301526024820152604401602060405180830381600087803b158015613d2f57600080fd5b505af1158015613d43573d6000803e3d6000fd5b505050506040513d6020811015613d5957600080fd5b81019080805150506001600160a01b037f000000000000000000000000000000000000000000000000000000000000000016915063a9059cbb905033878d036040516001600160e01b031960e085901b1681526001600160a01b0390921660048301526024820152604401602060405180830381600087803b158015613dde57600080fd5b505af1158015613df2573d6000803e3d6000fd5b505050506040513d6020811015613e0857600080fd5b810190808051505050505b88841015613f56578a6001600160a01b031663095ea7b37f000000000000000000000000000000000000000000000000000000000000000060006040516001600160e01b031960e085901b1681526001600160a01b0390921660048301526024820152604401602060405180830381600087803b158015613e9357600080fd5b505af1158015613ea7573d6000803e3d6000fd5b505050506040513d6020811015613ebd57600080fd5b8101908080515050506001600160a01b038c16905063a9059cbb33868c036040516001600160e01b031960e085901b1681526001600160a01b0390921660048301526024820152604401602060405180830381600087803b158015613f2157600080fd5b505af1158015613f35573d6000803e3d6000fd5b505050506040513d6020811015613f4b57600080fd5b810190808051505050505b80156140765760047f00000000000000000000000000000000000000000000000000000000000000006001600160a01b031663e6a439057f00000000000000000000000000000000000000000000000000000000000000008e6040516001600160e01b031960e085901b1681526001600160a01b0392831660048201529116602482015260440160206040518083038186803b158015613ff557600080fd5b505afa158015614009573d6000803e3d6000fd5b505050506040513d602081101561401f57600080fd5b810190808051845460018101865560009586529094909350602092509050200180547fffffffffffffffffffffffff0000000000000000000000000000000000000000166001600160a01b03929092169190911790555b336001600160a01b038c167fa69efe1c52650525df1faa35c52df11737058e15f9d1cc611760f70b3af18a7187878760405180848152602001838152602001828152602001935050505060405180910390a3505096509650969350505050565b60b490565b600080866001600160a01b03166323b872dd3330886040516001600160e01b031960e086901b1681526001600160a01b0393841660048201529190921660248201526044810191909152606401602060405180830381600087803b15801561414257600080fd5b505af1158015614156573d6000803e3d6000fd5b505050506040513d602081101561416c57600080fd5b8101908080515050506001600160a01b038816905063095ea7b37f0000000000000000000000000000000000000000000000000000000000000000876040516001600160e01b031960e085901b1681526001600160a01b0390921660048301526024820152604401602060405180830381600087803b1580156141ee57600080fd5b505af1158015614202573d6000803e3d6000fd5b505050506040513d602081101561421857600080fd5b8101908080515060609250600291506040905051908082528060200260200182016040528015614252578160200160208202803683370190505b509050878160008151811061426357fe5b60200260200101906001600160a01b031690816001600160a01b031681525050868160018151811061429157fe5b6001600160a01b0392831660209182029290920101526060907f0000000000000000000000000000000000000000000000000000000000000000166338ed1739888885338a6040518663ffffffff1660e01b81526004018086815260200185815260200180602001846001600160a01b03166001600160a01b03168152602001838152602001828103825285818151815260200191508051906020019060200280838360005b8381101561434f578082015183820152602001614337565b505050509050019650505050505050600060405180830381600087803b15801561437857600080fd5b505af115801561438c573d6000803e3d6000fd5b505050506040513d6000823e601f3d908101601f1916820160405260208110156143b557600080fd5b81019080805160405193929190846401000000008211156143d557600080fd5b9083019060208201858111156143ea57600080fd5b825186602082028301116401000000008211171561440757600080fd5b825250602001908051906020019060200280838360005b8381101561443657808201518382015260200161441e565b5050505090500160405250505090508060008151811061445257fe5b602002602001015193508060018151811061446957fe5b60200260200101519250876001600160a01b0316896001600160a01b03167f25f1d03755df23c30e25db2dbd3891e31ce084bdfbfc46f9fe5e446ee5f9b2d4868660405191825260208201526040908101905180910390a350509550959350505050565b60006144e2836001600160a01b0384166145d6565b9392505050565b6144fa60008263ffffffff6145f016565b5050565b5490565b6144fa60008263ffffffff61460516565b6002546127107401000000000000000000000000000000000000000090910461ffff16820204900390565b80546001019055565b600081805161455a575060009050610be1565b60208301519392505050565b600060606001604051908082528060200260200182016040528015614595578160200160208202803683370190505b50905082816000815181106145a657fe5b6020026020010181815250506145bb8161461a565b6000815181106145c757fe5b60200260200101519392505050565b600081815260018301602052604081205415159392505050565b60006144e2836001600160a01b0384166147e5565b60006144e2836001600160a01b0384166148c2565b6060367fffffffffffffffffffffffffffffffffffffffffffffffffffffffffffffff9f013560ff81166040908102602001908390519050818152816042830136036020830137602081016040526000818051906020012090506000816040517f19457468657265756d205369676e6564204d6573736167653a0a3332000000006020820152603c810191909152605c016040516020818303038152906040528051906020012090506060604051905060418152604180360360208301376020810160405260006146f1838363ffffffff61490b16565b90506146fc81610bcf565b61474c5760405162461bcd60e51b815260206004820152601560248201527f5369676e6572206e6f7420617574686f72697a65640000000000000000000000604482015260640160405180910390fd5b7fffffffffffffffffffffffffffffffffffffffffffffffffffffffffffffff9e36013561477981611609565b6147c95760405162461bcd60e51b815260206004820152601960248201527f446174612074696d657374616d7020697320696e76616c696400000000000000604482015260640160405180910390fd5b6147d78a8960ff16896149e2565b9a9950505050505050505050565b600081815260018301602052806040812054905080156148b85783547fffffffffffffffffffffffffffffffffffffffffffffffffffffffffffffffff808301919081019060009087908390811061483957fe5b906000526020600020015490508087600001848154811061485657fe5b9060005260206000200155600081815260018881016020528401906040902055865487908061488157fe5b6001900381819060005260206000206000910181905591558681526001880160205260409020600090556001945050505050611024565b6000915050611024565b60006148ce83836145d6565b614903578254600181018455600084815283919060209020015582546000838152600185016020526040902055506001611024565b506000611024565b600080600080845160411415614938576020850151925060408501519150606085015160001a90506149cc565b845160401415614980576040850151602086015193507f7fffffffffffffffffffffffffffffffffffffffffffffffffffffffffffffff8116925060ff1c601b0190506149cc565b60405162461bcd60e51b815260206004820152601f60248201527f45434453413a20696e76616c6964207369676e6174757265206c656e67746800604482015260640160405180910390fd5b6149d886828585614a86565b9695505050505050565b6060806000806000806042870136035995508951865260208a51026020870101604052600094505b88851015614a7857604085028101359150600093505b8951841015614a6d57816020850260208c0101511415614a555760206040860282010135602085026020880101526001830192505b8951831415614a62578894505b600184019350614a20565b600185019450614a0a565b509398975050505050505050565b60007f7fffffffffffffffffffffffffffffff5d576e7357a4501ddfe92f46681b20a0821115614ae75760405162461bcd60e51b8152600401808060200182810382526022815260200180614c066022913960400191505060405180910390fd5b8360ff16601b1480614afc57508360ff16601c145b614b375760405162461bcd60e51b8152600401808060200182810382526022815260200180614c286022913960400191505060405180910390fd5b600060018686868660405160008152602001604052604051808581526020018460ff1660ff1681526020018381526020018281526020019450505050506020604051602081039080840390855afa158015614b96573d6000803e3d6000fd5b5050506020604051035190506001600160a01b038116614bfc5760405162461bcd60e51b815260206004820152601860248201527f45434453413a20696e76616c6964207369676e61747572650000000000000000604482015260640160405180910390fd5b9594505050505056fe45434453413a20696e76616c6964207369676e6174757265202773272076616c756545434453413a20696e76616c6964207369676e6174757265202776272076616c7565a2646970667358221220d4525735ed2af4a340ebdede0dbba86b738c4b51564f093a84d5eafba264f19564736f6c63430006060033",
  "linkReferences": {},
  "deployedLinkReferences": {}
}