{
  "_format": "hh-sol-artifact-1",
  "contractName": "CazzPayToken",
  "sourceName": "contracts/CazzPayToken/CazzPayToken.sol",
  "abi": [
    {
      "inputs": [
        {
          "internalType": "uint256",
          "name": "_initialAmtToMint",
          "type": "uint256"
        }
      ],
      "stateMutability": "nonpayable",
      "type": "constructor"
    },
    {
      "anonymous": false,
      "inputs": [
        {
          "indexed": true,
          "internalType": "address",
          "name": "owner",
          "type": "address"
        },
        {
          "indexed": true,
          "internalType": "address",
          "name": "spender",
          "type": "address"
        },
        {
          "indexed": false,
          "internalType": "uint256",
          "name": "value",
          "type": "uint256"
        }
      ],
      "name": "Approval",
      "type": "event"
    },
    {
      "anonymous": false,
      "inputs": [
        {
          "indexed": true,
          "internalType": "address",
          "name": "from",
          "type": "address"
        },
        {
          "indexed": true,
          "internalType": "address",
          "name": "to",
          "type": "address"
        },
        {
          "indexed": false,
          "internalType": "uint256",
          "name": "value",
          "type": "uint256"
        }
      ],
      "name": "Transfer",
      "type": "event"
    },
    {
      "inputs": [
        {
          "internalType": "address",
          "name": "_newOwner",
          "type": "address"
        }
      ],
      "name": "addOwner",
      "outputs": [],
      "stateMutability": "nonpayable",
      "type": "function"
    },
    {
      "inputs": [
        {
          "internalType": "address",
          "name": "owner",
          "type": "address"
        },
        {
          "internalType": "address",
          "name": "spender",
          "type": "address"
        }
      ],
      "name": "allowance",
      "outputs": [
        {
          "internalType": "uint256",
          "name": "",
          "type": "uint256"
        }
      ],
      "stateMutability": "view",
      "type": "function"
    },
    {
      "inputs": [
        {
          "internalType": "address",
          "name": "spender",
          "type": "address"
        },
        {
          "internalType": "uint256",
          "name": "amount",
          "type": "uint256"
        }
      ],
      "name": "approve",
      "outputs": [
        {
          "internalType": "bool",
          "name": "",
          "type": "bool"
        }
      ],
      "stateMutability": "nonpayable",
      "type": "function"
    },
    {
      "inputs": [
        {
          "internalType": "address",
          "name": "account",
          "type": "address"
        }
      ],
      "name": "balanceOf",
      "outputs": [
        {
          "internalType": "uint256",
          "name": "",
          "type": "uint256"
        }
      ],
      "stateMutability": "view",
      "type": "function"
    },
    {
      "inputs": [
        {
          "internalType": "uint256",
          "name": "amount",
          "type": "uint256"
        }
      ],
      "name": "burn",
      "outputs": [],
      "stateMutability": "nonpayable",
      "type": "function"
    },
    {
      "inputs": [
        {
          "internalType": "address",
          "name": "account",
          "type": "address"
        },
        {
          "internalType": "uint256",
          "name": "amount",
          "type": "uint256"
        }
      ],
      "name": "burnFrom",
      "outputs": [],
      "stateMutability": "nonpayable",
      "type": "function"
    },
    {
      "inputs": [],
      "name": "decimals",
      "outputs": [
        {
          "internalType": "uint8",
          "name": "",
          "type": "uint8"
        }
      ],
      "stateMutability": "view",
      "type": "function"
    },
    {
      "inputs": [
        {
          "internalType": "address",
          "name": "spender",
          "type": "address"
        },
        {
          "internalType": "uint256",
          "name": "subtractedValue",
          "type": "uint256"
        }
      ],
      "name": "decreaseAllowance",
      "outputs": [
        {
          "internalType": "bool",
          "name": "",
          "type": "bool"
        }
      ],
      "stateMutability": "nonpayable",
      "type": "function"
    },
    {
      "inputs": [
        {
          "internalType": "address",
          "name": "spender",
          "type": "address"
        },
        {
          "internalType": "uint256",
          "name": "addedValue",
          "type": "uint256"
        }
      ],
      "name": "increaseAllowance",
      "outputs": [
        {
          "internalType": "bool",
          "name": "",
          "type": "bool"
        }
      ],
      "stateMutability": "nonpayable",
      "type": "function"
    },
    {
      "inputs": [
        {
          "internalType": "address",
          "name": "_ownerToVerify",
          "type": "address"
        }
      ],
      "name": "isOwner",
      "outputs": [
        {
          "internalType": "bool",
          "name": "",
          "type": "bool"
        }
      ],
      "stateMutability": "view",
      "type": "function"
    },
    {
      "inputs": [
        {
          "internalType": "address",
          "name": "_mintTo",
          "type": "address"
        },
        {
          "internalType": "uint256",
          "name": "_amtToMint",
          "type": "uint256"
        }
      ],
      "name": "mintTokens",
      "outputs": [],
      "stateMutability": "nonpayable",
      "type": "function"
    },
    {
      "inputs": [],
      "name": "name",
      "outputs": [
        {
          "internalType": "string",
          "name": "",
          "type": "string"
        }
      ],
      "stateMutability": "view",
      "type": "function"
    },
    {
      "inputs": [
        {
          "internalType": "address",
          "name": "_ownerToRemove",
          "type": "address"
        }
      ],
      "name": "removeOwner",
      "outputs": [],
      "stateMutability": "nonpayable",
      "type": "function"
    },
    {
      "inputs": [],
      "name": "symbol",
      "outputs": [
        {
          "internalType": "string",
          "name": "",
          "type": "string"
        }
      ],
      "stateMutability": "view",
      "type": "function"
    },
    {
      "inputs": [],
      "name": "totalSupply",
      "outputs": [
        {
          "internalType": "uint256",
          "name": "",
          "type": "uint256"
        }
      ],
      "stateMutability": "view",
      "type": "function"
    },
    {
      "inputs": [
        {
          "internalType": "address",
          "name": "recipient",
          "type": "address"
        },
        {
          "internalType": "uint256",
          "name": "amount",
          "type": "uint256"
        }
      ],
      "name": "transfer",
      "outputs": [
        {
          "internalType": "bool",
          "name": "",
          "type": "bool"
        }
      ],
      "stateMutability": "nonpayable",
      "type": "function"
    },
    {
      "inputs": [
        {
          "internalType": "address",
          "name": "sender",
          "type": "address"
        },
        {
          "internalType": "address",
          "name": "recipient",
          "type": "address"
        },
        {
          "internalType": "uint256",
          "name": "amount",
          "type": "uint256"
        }
      ],
      "name": "transferFrom",
      "outputs": [
        {
          "internalType": "bool",
          "name": "",
          "type": "bool"
        }
      ],
      "stateMutability": "nonpayable",
      "type": "function"
    }
  ],
  "bytecode": "0x60806040523480156200001157600080fd5b506040516200153c3803806200153c833981810160405260208110156200003757600080fd5b5051604080518082018252600c81526b21b0bd3d2830bcaa37b5b2b760a11b602082810191909152825180840190935260038352620435a560ec1b838201529091906200009290600090339062000ec5620000ea821b17901c565b508151620000a8906005906020850190620002ff565b508051620000be906006906020840190620002ff565b50506007805460ff1916601217905550620000e333826001600160e01b036200011316565b50620003a4565b60006200010a836001600160a01b0384166001600160e01b036200022f16565b90505b92915050565b6001600160a01b0382166200016f576040805162461bcd60e51b815260206004820152601f60248201527f45524332303a206d696e7420746f20746865207a65726f206164647265737300604482015290519081900360640190fd5b62000186600083836001600160e01b036200028716565b620001a2816004546200028c60201b62000bca1790919060201c565b6004556001600160a01b038216600090815260026020908152604090912054620001d791839062000bca6200028c821b17901c565b6001600160a01b03831660008181526002602090815260408083209490945583518581529351929391927fddf252ad1be2c89b69c2b068fc378daa952ba7f163c4a11628f55a4df523b3ef9281900390910190a35050565b60006200024683836001600160e01b03620002e716565b6200027e575081546001818101845560008481526020808220909301849055845484825282860190935260409020919091556200010d565b5060006200010d565b505050565b6000828201838110156200010a576040805162461bcd60e51b815260206004820152601b60248201527f536166654d6174683a206164646974696f6e206f766572666c6f770000000000604482015290519081900360640190fd5b60009081526001919091016020526040902054151590565b828054600181600116156101000203166002900490600052602060002090601f016020900481019282601f106200034257805160ff191683800117855562000372565b8280016001018555821562000372579182015b828111156200037257825182559160200191906001019062000355565b506200038092915062000384565b5090565b620003a191905b808211156200038057600081556001016200038b565b90565b61118880620003b46000396000f3fe608060405234801561001057600080fd5b506004361061011b5760003560e01c806342966c68116100b257806395d89b4111610081578063a9059cbb11610066578063a9059cbb1461038e578063dd62ed3e146103ba578063f0dda65c146103e85761011b565b806395d89b411461035a578063a457c2d7146103625761011b565b806342966c68146102c55780637065cb48146102e257806370a082311461030857806379cc67901461032e5761011b565b806323b872dd116100ee57806323b872dd1461021f5780632f54bf6e14610255578063313ce5671461027b57806339509351146102995761011b565b806306fdde0314610120578063095ea7b31461019d578063173825d9146101dd57806318160ddd14610205575b600080fd5b610128610414565b6040805160208082528351818301528351919283929083019185019080838360005b8381101561016257818101518382015260200161014a565b50505050905090810190601f16801561018f5780820380516001836020036101000a031916815260200191505b509250505060405180910390f35b6101c9600480360360408110156101b357600080fd5b506001600160a01b0381351690602001356104aa565b604080519115158252519081900360200190f35b610203600480360360208110156101f357600080fd5b50356001600160a01b03166104c8565b005b61020d610536565b60408051918252519081900360200190f35b6101c96004803603606081101561023557600080fd5b506001600160a01b0381358116916020810135909116906040013561053c565b6101c96004803603602081101561026b57600080fd5b50356001600160a01b03166105c9565b6102836105db565b6040805160ff9092168252519081900360200190f35b6101c9600480360360408110156102af57600080fd5b506001600160a01b0381351690602001356105e4565b610203600480360360208110156102db57600080fd5b5035610638565b610203600480360360208110156102f857600080fd5b50356001600160a01b0316610649565b61020d6004803603602081101561031e57600080fd5b50356001600160a01b03166106b4565b6102036004803603604081101561034457600080fd5b506001600160a01b0381351690602001356106cf565b61012861072f565b6101c96004803603604081101561037857600080fd5b506001600160a01b038135169060200135610790565b6101c9600480360360408110156103a457600080fd5b506001600160a01b0381351690602001356107fe565b61020d600480360360408110156103d057600080fd5b506001600160a01b0381358116916020013516610812565b610203600480360360408110156103fe57600080fd5b506001600160a01b03813516906020013561083d565b60058054604080516020601f60026000196101006001881615020190951694909404938401819004810282018101909252828152606093909290918301828280156104a05780601f10610475576101008083540402835291602001916104a0565b820191906000526020600020905b81548152906001019060200180831161048357829003601f168201915b5050505050905090565b60006104be6104b76108ad565b84846108b1565b5060015b92915050565b6104d960003363ffffffff61099d16565b61052a576040805162461bcd60e51b815260206004820152600960248201527f4e4f54204f574e45520000000000000000000000000000000000000000000000604482015290519081900360640190fd5b610533816109b9565b50565b60045490565b60006105498484846109ca565b6105bf846105556108ad565b6105ba85604051806060016040528060288152602001611078602891396001600160a01b038a166000908152600360205260408120906105936108ad565b6001600160a01b03168152602081019190915260400160002054919063ffffffff610b3316565b6108b1565b5060019392505050565b60006104c2818363ffffffff61099d16565b60075460ff1690565b60006104be6105f16108ad565b846105ba85600360006106026108ad565b6001600160a01b03908116825260208083019390935260409182016000908120918c16815292529020549063ffffffff610bca16565b6105336106436108ad565b82610c24565b61065a60003363ffffffff61099d16565b6106ab576040805162461bcd60e51b815260206004820152600960248201527f4e4f54204f574e45520000000000000000000000000000000000000000000000604482015290519081900360640190fd5b61053381610d2c565b6001600160a01b031660009081526002602052604090205490565b600061070c826040518060600160405280602481526020016110a0602491396106ff866106fa6108ad565b610812565b919063ffffffff610b3316565b90506107208361071a6108ad565b836108b1565b61072a8383610c24565b505050565b60068054604080516020601f60026000196101006001881615020190951694909404938401819004810282018101909252828152606093909290918301828280156104a05780601f10610475576101008083540402835291602001916104a0565b60006104be61079d6108ad565b846105ba8560405180606001604052806025815260200161112e60259139600360006107c76108ad565b6001600160a01b03908116825260208083019390935260409182016000908120918d1681529252902054919063ffffffff610b3316565b60006104be61080b6108ad565b84846109ca565b6001600160a01b03918216600090815260036020908152604080832093909416825291909152205490565b61084e60003363ffffffff61099d16565b61089f576040805162461bcd60e51b815260206004820152600960248201527f4e4f54204f574e45520000000000000000000000000000000000000000000000604482015290519081900360640190fd5b6108a98282610d3d565b5050565b3390565b6001600160a01b0383166108f65760405162461bcd60e51b815260040180806020018281038252602481526020018061110a6024913960400191505060405180910390fd5b6001600160a01b03821661093b5760405162461bcd60e51b81526004018080602001828103825260228152602001806110306022913960400191505060405180910390fd5b6001600160a01b03808416600081815260036020908152604080832094871680845294825291829020859055815185815291517f8c5be1e5ebec7d5bd14f71427d1e84f3dd0314c0f7b2291e5b200ac8c7c3b9259281900390910190a3505050565b60006109b2836001600160a01b038416610e3b565b9392505050565b6108a960008263ffffffff610e5316565b6001600160a01b038316610a0f5760405162461bcd60e51b81526004018080602001828103825260258152602001806110e56025913960400191505060405180910390fd5b6001600160a01b038216610a545760405162461bcd60e51b8152600401808060200182810382526023815260200180610feb6023913960400191505060405180910390fd5b610a5f83838361072a565b610aa281604051806060016040528060268152602001611052602691396001600160a01b038616600090815260026020526040902054919063ffffffff610b3316565b6001600160a01b038085166000908152600260205260408082209390935590841681522054610ad7908263ffffffff610bca16565b6001600160a01b0380841660008181526002602090815260409182902094909455805185815290519193928716927fddf252ad1be2c89b69c2b068fc378daa952ba7f163c4a11628f55a4df523b3ef92918290030190a3505050565b60008184841115610bc25760405162461bcd60e51b81526004018080602001828103825283818151815260200191508051906020019080838360005b83811015610b87578181015183820152602001610b6f565b50505050905090810190601f168015610bb45780820380516001836020036101000a031916815260200191505b509250505060405180910390fd5b505050900390565b6000828201838110156109b2576040805162461bcd60e51b815260206004820152601b60248201527f536166654d6174683a206164646974696f6e206f766572666c6f770000000000604482015290519081900360640190fd5b6001600160a01b038216610c695760405162461bcd60e51b81526004018080602001828103825260218152602001806110c46021913960400191505060405180910390fd5b610c758260008361072a565b610cb88160405180606001604052806022815260200161100e602291396001600160a01b038516600090815260026020526040902054919063ffffffff610b3316565b6001600160a01b038316600090815260026020526040902055600454610ce4908263ffffffff610e6816565b6004556040805182815290516000916001600160a01b038516917fddf252ad1be2c89b69c2b068fc378daa952ba7f163c4a11628f55a4df523b3ef9181900360200190a35050565b6108a960008263ffffffff610ec516565b6001600160a01b038216610d98576040805162461bcd60e51b815260206004820152601f60248201527f45524332303a206d696e7420746f20746865207a65726f206164647265737300604482015290519081900360640190fd5b610da46000838361072a565b600454610db7908263ffffffff610bca16565b6004556001600160a01b038216600090815260026020526040902054610de3908263ffffffff610bca16565b6001600160a01b03831660008181526002602090815260408083209490945583518581529351929391927fddf252ad1be2c89b69c2b068fc378daa952ba7f163c4a11628f55a4df523b3ef9281900390910190a35050565b60009081526001919091016020526040902054151590565b60006109b2836001600160a01b038416610eda565b600082821115610ebf576040805162461bcd60e51b815260206004820152601e60248201527f536166654d6174683a207375627472616374696f6e206f766572666c6f770000604482015290519081900360640190fd5b50900390565b60006109b2836001600160a01b038416610fa0565b60008181526001830160205260408120548015610f965783546000198083019190810190600090879083908110610f0d57fe5b9060005260206000200154905080876000018481548110610f2a57fe5b600091825260208083209091019290925582815260018981019092526040902090840190558654879080610f5a57fe5b600190038181906000526020600020016000905590558660010160008781526020019081526020016000206000905560019450505050506104c2565b60009150506104c2565b6000610fac8383610e3b565b610fe2575081546001818101845560008481526020808220909301849055845484825282860190935260409020919091556104c2565b5060006104c256fe45524332303a207472616e7366657220746f20746865207a65726f206164647265737345524332303a206275726e20616d6f756e7420657863656564732062616c616e636545524332303a20617070726f766520746f20746865207a65726f206164647265737345524332303a207472616e7366657220616d6f756e7420657863656564732062616c616e636545524332303a207472616e7366657220616d6f756e74206578636565647320616c6c6f77616e636545524332303a206275726e20616d6f756e74206578636565647320616c6c6f77616e636545524332303a206275726e2066726f6d20746865207a65726f206164647265737345524332303a207472616e736665722066726f6d20746865207a65726f206164647265737345524332303a20617070726f76652066726f6d20746865207a65726f206164647265737345524332303a2064656372656173656420616c6c6f77616e63652062656c6f77207a65726fa264697066735822122039d32ddc63ef11cbe7cc75b78e8306f9ffdb228ccc68ca7b340106ca0b7f3e2164736f6c63430006060033",
  "linkReferences": {},
  "deployedLinkReferences": {}
}