{
  "_format": "hh-sol-artifact-1",
  "contractName": "TestCoin",
  "sourceName": "contracts/Test/TestCoin.sol",
  "abi": [
    {
      "inputs": [
        {
          "internalType": "uint256",
          "name": "_initialAmtToMint",
          "type": "uint256"
        }
      ],
      "stateMutability": "nonpayable",
      "type": "constructor"
    },
    {
      "anonymous": false,
      "inputs": [
        {
          "indexed": true,
          "internalType": "address",
          "name": "owner",
          "type": "address"
        },
        {
          "indexed": true,
          "internalType": "address",
          "name": "spender",
          "type": "address"
        },
        {
          "indexed": false,
          "internalType": "uint256",
          "name": "value",
          "type": "uint256"
        }
      ],
      "name": "Approval",
      "type": "event"
    },
    {
      "anonymous": false,
      "inputs": [
        {
          "indexed": true,
          "internalType": "address",
          "name": "from",
          "type": "address"
        },
        {
          "indexed": true,
          "internalType": "address",
          "name": "to",
          "type": "address"
        },
        {
          "indexed": false,
          "internalType": "uint256",
          "name": "value",
          "type": "uint256"
        }
      ],
      "name": "Transfer",
      "type": "event"
    },
    {
      "inputs": [
        {
          "internalType": "address",
          "name": "owner",
          "type": "address"
        },
        {
          "internalType": "address",
          "name": "spender",
          "type": "address"
        }
      ],
      "name": "allowance",
      "outputs": [
        {
          "internalType": "uint256",
          "name": "",
          "type": "uint256"
        }
      ],
      "stateMutability": "view",
      "type": "function"
    },
    {
      "inputs": [
        {
          "internalType": "address",
          "name": "spender",
          "type": "address"
        },
        {
          "internalType": "uint256",
          "name": "amount",
          "type": "uint256"
        }
      ],
      "name": "approve",
      "outputs": [
        {
          "internalType": "bool",
          "name": "",
          "type": "bool"
        }
      ],
      "stateMutability": "nonpayable",
      "type": "function"
    },
    {
      "inputs": [
        {
          "internalType": "address",
          "name": "account",
          "type": "address"
        }
      ],
      "name": "balanceOf",
      "outputs": [
        {
          "internalType": "uint256",
          "name": "",
          "type": "uint256"
        }
      ],
      "stateMutability": "view",
      "type": "function"
    },
    {
      "inputs": [],
      "name": "decimals",
      "outputs": [
        {
          "internalType": "uint8",
          "name": "",
          "type": "uint8"
        }
      ],
      "stateMutability": "view",
      "type": "function"
    },
    {
      "inputs": [
        {
          "internalType": "address",
          "name": "spender",
          "type": "address"
        },
        {
          "internalType": "uint256",
          "name": "subtractedValue",
          "type": "uint256"
        }
      ],
      "name": "decreaseAllowance",
      "outputs": [
        {
          "internalType": "bool",
          "name": "",
          "type": "bool"
        }
      ],
      "stateMutability": "nonpayable",
      "type": "function"
    },
    {
      "inputs": [
        {
          "internalType": "address",
          "name": "spender",
          "type": "address"
        },
        {
          "internalType": "uint256",
          "name": "addedValue",
          "type": "uint256"
        }
      ],
      "name": "increaseAllowance",
      "outputs": [
        {
          "internalType": "bool",
          "name": "",
          "type": "bool"
        }
      ],
      "stateMutability": "nonpayable",
      "type": "function"
    },
    {
      "inputs": [
        {
          "internalType": "address",
          "name": "_recipient",
          "type": "address"
        },
        {
          "internalType": "uint256",
          "name": "_amtToMint",
          "type": "uint256"
        }
      ],
      "name": "mintTo",
      "outputs": [],
      "stateMutability": "nonpayable",
      "type": "function"
    },
    {
      "inputs": [],
      "name": "name",
      "outputs": [
        {
          "internalType": "string",
          "name": "",
          "type": "string"
        }
      ],
      "stateMutability": "view",
      "type": "function"
    },
    {
      "inputs": [],
      "name": "symbol",
      "outputs": [
        {
          "internalType": "string",
          "name": "",
          "type": "string"
        }
      ],
      "stateMutability": "view",
      "type": "function"
    },
    {
      "inputs": [],
      "name": "totalSupply",
      "outputs": [
        {
          "internalType": "uint256",
          "name": "",
          "type": "uint256"
        }
      ],
      "stateMutability": "view",
      "type": "function"
    },
    {
      "inputs": [
        {
          "internalType": "address",
          "name": "recipient",
          "type": "address"
        },
        {
          "internalType": "uint256",
          "name": "amount",
          "type": "uint256"
        }
      ],
      "name": "transfer",
      "outputs": [
        {
          "internalType": "bool",
          "name": "",
          "type": "bool"
        }
      ],
      "stateMutability": "nonpayable",
      "type": "function"
    },
    {
      "inputs": [
        {
          "internalType": "address",
          "name": "sender",
          "type": "address"
        },
        {
          "internalType": "address",
          "name": "recipient",
          "type": "address"
        },
        {
          "internalType": "uint256",
          "name": "amount",
          "type": "uint256"
        }
      ],
      "name": "transferFrom",
      "outputs": [
        {
          "internalType": "bool",
          "name": "",
          "type": "bool"
        }
      ],
      "stateMutability": "nonpayable",
      "type": "function"
    }
  ],
  "bytecode": "0x60806040523480156200001157600080fd5b5060405162000eab38038062000eab833981810160405260208110156200003757600080fd5b505160408051808201825260088152672a32b9ba21b7b4b760c11b602082810191825283518085019094526003808552621514d560ea1b91850191909152825192939262000086929062000247565b5080516200009c90600490602084019062000247565b50506005805460ff1916601217905550620000c133826001600160e01b03620000c816565b50620002ec565b6001600160a01b03821662000124576040805162461bcd60e51b815260206004820152601f60248201527f45524332303a206d696e7420746f20746865207a65726f206164647265737300604482015290519081900360640190fd5b6200013b600083836001600160e01b03620001e016565b6200015781600254620001e560201b620009161790919060201c565b6002556001600160a01b038216600090815260208181526040909120546200018a91839062000916620001e5821b17901c565b6001600160a01b0383166000818152602081815260408083209490945583518581529351929391927fddf252ad1be2c89b69c2b068fc378daa952ba7f163c4a11628f55a4df523b3ef9281900390910190a35050565b505050565b60008282018381101562000240576040805162461bcd60e51b815260206004820152601b60248201527f536166654d6174683a206164646974696f6e206f766572666c6f770000000000604482015290519081900360640190fd5b9392505050565b828054600181600116156101000203166002900490600052602060002090601f016020900481019282601f106200028a57805160ff1916838001178555620002ba565b82800160010185558215620002ba579182015b82811115620002ba5782518255916020019190600101906200029d565b50620002c8929150620002cc565b5090565b620002e991905b80821115620002c85760008155600101620002d3565b90565b610baf80620002fc6000396000f3fe608060405234801561001057600080fd5b50600436106100d45760003560e01c8063449a52f811610081578063a457c2d71161005b578063a457c2d71461028c578063a9059cbb146102b8578063dd62ed3e146102e4576100d4565b8063449a52f81461023057806370a082311461025e57806395d89b4114610284576100d4565b806323b872dd116100b257806323b872dd146101b0578063313ce567146101e65780633950935114610204576100d4565b806306fdde03146100d9578063095ea7b31461015657806318160ddd14610196575b600080fd5b6100e1610312565b6040805160208082528351818301528351919283929083019185019080838360005b8381101561011b578181015183820152602001610103565b50505050905090810190601f1680156101485780820380516001836020036101000a031916815260200191505b509250505060405180910390f35b6101826004803603604081101561016c57600080fd5b506001600160a01b0381351690602001356103c6565b604080519115158252519081900360200190f35b61019e6103e3565b60408051918252519081900360200190f35b610182600480360360608110156101c657600080fd5b506001600160a01b038135811691602081013590911690604001356103e9565b6101ee610476565b6040805160ff9092168252519081900360200190f35b6101826004803603604081101561021a57600080fd5b506001600160a01b03813516906020013561047f565b61025c6004803603604081101561024657600080fd5b506001600160a01b0381351690602001356104d3565b005b61019e6004803603602081101561027457600080fd5b50356001600160a01b03166104e1565b6100e16104fc565b610182600480360360408110156102a257600080fd5b506001600160a01b03813516906020013561057b565b610182600480360360408110156102ce57600080fd5b506001600160a01b0381351690602001356105e9565b61019e600480360360408110156102fa57600080fd5b506001600160a01b03813581169160200135166105fd565b60038054604080516020601f60027fffffffffffffffffffffffffffffffffffffffffffffffffffffffffffffffff6101006001881615020190951694909404938401819004810282018101909252828152606093909290918301828280156103bc5780601f10610391576101008083540402835291602001916103bc565b820191906000526020600020905b81548152906001019060200180831161039f57829003601f168201915b5050505050905090565b60006103da6103d3610628565b848461062c565b50600192915050565b60025490565b60006103f6848484610718565b61046c84610402610628565b61046785604051806060016040528060288152602001610ae4602891396001600160a01b038a16600090815260016020526040812090610440610628565b6001600160a01b03168152602081019190915260400160002054919063ffffffff61087f16565b61062c565b5060019392505050565b60055460ff1690565b60006103da61048c610628565b84610467856001600061049d610628565b6001600160a01b03908116825260208083019390935260409182016000908120918c16815292529020549063ffffffff61091616565b6104dd8282610977565b5050565b6001600160a01b031660009081526020819052604090205490565b60048054604080516020601f60027fffffffffffffffffffffffffffffffffffffffffffffffffffffffffffffffff6101006001881615020190951694909404938401819004810282018101909252828152606093909290918301828280156103bc5780601f10610391576101008083540402835291602001916103bc565b60006103da610588610628565b8461046785604051806060016040528060258152602001610b5560259139600160006105b2610628565b6001600160a01b03908116825260208083019390935260409182016000908120918d1681529252902054919063ffffffff61087f16565b60006103da6105f6610628565b8484610718565b6001600160a01b03918216600090815260016020908152604080832093909416825291909152205490565b3390565b6001600160a01b0383166106715760405162461bcd60e51b8152600401808060200182810382526024815260200180610b316024913960400191505060405180910390fd5b6001600160a01b0382166106b65760405162461bcd60e51b8152600401808060200182810382526022815260200180610a9c6022913960400191505060405180910390fd5b6001600160a01b03808416600081815260016020908152604080832094871680845294825291829020859055815185815291517f8c5be1e5ebec7d5bd14f71427d1e84f3dd0314c0f7b2291e5b200ac8c7c3b9259281900390910190a3505050565b6001600160a01b03831661075d5760405162461bcd60e51b8152600401808060200182810382526025815260200180610b0c6025913960400191505060405180910390fd5b6001600160a01b0382166107a25760405162461bcd60e51b8152600401808060200182810382526023815260200180610a796023913960400191505060405180910390fd5b6107ad838383610a73565b6107f081604051806060016040528060268152602001610abe602691396001600160a01b038616600090815260208190526040902054919063ffffffff61087f16565b6001600160a01b038085166000908152602081905260408082209390935590841681522054610825908263ffffffff61091616565b6001600160a01b038084166000818152602081815260409182902094909455805185815290519193928716927fddf252ad1be2c89b69c2b068fc378daa952ba7f163c4a11628f55a4df523b3ef92918290030190a3505050565b6000818484111561090e5760405162461bcd60e51b81526004018080602001828103825283818151815260200191508051906020019080838360005b838110156108d35781810151838201526020016108bb565b50505050905090810190601f1680156109005780820380516001836020036101000a031916815260200191505b509250505060405180910390fd5b505050900390565b600082820183811015610970576040805162461bcd60e51b815260206004820152601b60248201527f536166654d6174683a206164646974696f6e206f766572666c6f770000000000604482015290519081900360640190fd5b9392505050565b6001600160a01b0382166109d2576040805162461bcd60e51b815260206004820152601f60248201527f45524332303a206d696e7420746f20746865207a65726f206164647265737300604482015290519081900360640190fd5b6109de60008383610a73565b6002546109f1908263ffffffff61091616565b6002556001600160a01b038216600090815260208190526040902054610a1d908263ffffffff61091616565b6001600160a01b0383166000818152602081815260408083209490945583518581529351929391927fddf252ad1be2c89b69c2b068fc378daa952ba7f163c4a11628f55a4df523b3ef9281900390910190a35050565b50505056fe45524332303a207472616e7366657220746f20746865207a65726f206164647265737345524332303a20617070726f766520746f20746865207a65726f206164647265737345524332303a207472616e7366657220616d6f756e7420657863656564732062616c616e636545524332303a207472616e7366657220616d6f756e74206578636565647320616c6c6f77616e636545524332303a207472616e736665722066726f6d20746865207a65726f206164647265737345524332303a20617070726f76652066726f6d20746865207a65726f206164647265737345524332303a2064656372656173656420616c6c6f77616e63652062656c6f77207a65726fa2646970667358221220530799195e65592ec645c578003f48e0640246fbd35f5f07fe7a9bfafadee64964736f6c63430006060033",
  "linkReferences": {},
  "deployedLinkReferences": {}
}