{
  "_format": "hh-sol-artifact-1",
  "contractName": "CazzPayOracle",
  "sourceName": "contracts/CazzPay/CazzPayOracle.sol",
  "abi": [
    {
      "inputs": [],
      "name": "getMaxBlockTimestampDelay",
      "outputs": [
        {
          "internalType": "uint256",
          "name": "",
          "type": "uint256"
        }
      ],
      "stateMutability": "pure",
      "type": "function"
    },
    {
      "inputs": [],
      "name": "getMaxDataTimestampDelay",
      "outputs": [
        {
          "internalType": "uint256",
          "name": "",
          "type": "uint256"
        }
      ],
      "stateMutability": "pure",
      "type": "function"
    },
    {
      "inputs": [
        {
          "internalType": "string",
          "name": "_tokenSymbol",
          "type": "string"
        }
      ],
      "name": "getPriceOfTokenInCzp",
      "outputs": [
        {
          "internalType": "uint256",
          "name": "",
          "type": "uint256"
        }
      ],
      "stateMutability": "view",
      "type": "function"
    },
    {
      "inputs": [
        {
          "internalType": "address",
          "name": "_receivedSigner",
          "type": "address"
        }
      ],
      "name": "isSignerAuthorized",
      "outputs": [
        {
          "internalType": "bool",
          "name": "",
          "type": "bool"
        }
      ],
      "stateMutability": "pure",
      "type": "function"
    },
    {
      "inputs": [
        {
          "internalType": "uint256",
          "name": "_receivedTimestamp",
          "type": "uint256"
        }
      ],
      "name": "isTimestampValid",
      "outputs": [
        {
          "internalType": "bool",
          "name": "",
          "type": "bool"
        }
      ],
      "stateMutability": "view",
      "type": "function"
    }
  ],
  "bytecode": "0x608060405234801561001057600080fd5b506109ad806100206000396000f3fe608060405234801561001057600080fd5b50600436106100675760003560e01c80635118af5a116100505780635118af5a1461019757806375058205146101b5578063f31a210a146101fb57610067565b806311c89b101461006c5780631339e657146100c8575b600080fd5b6100ae6004803603602081101561008257600080fd5b81019080803573ffffffffffffffffffffffffffffffffffffffff169060200190929190505050610219565b604051808215151515815260200191505060405180910390f35b610181600480360360208110156100de57600080fd5b81019080803590602001906401000000008111156100fb57600080fd5b82018360208201111561010d57600080fd5b8035906020019184600183028401116401000000008311171561012f57600080fd5b91908080601f016020809104026020016040519081016040528093929190818152602001838380828437600081840152601f19601f820116905080830192505050505050509192919290505050610265565b6040518082815260200191505060405180910390f35b61019f610286565b6040518082815260200191505060405180910390f35b6101e1600480360360208110156101cb57600080fd5b810190808035906020019092919050505061028f565b604051808215151515815260200191505060405180910390f35b61020361030f565b6040518082815260200191505060405180910390f35b6000730c39486f770b26f5527bbbf942726537986cd7eb73ffffffffffffffffffffffffffffffffffffffff168273ffffffffffffffffffffffffffffffffffffffff16149050919050565b60006402540be40061027e61027984610318565b610343565b029050919050565b6000600f905090565b60008161029a610286565b4201116102f2576040517f08c379a000000000000000000000000000000000000000000000000000000000815260040180806020018281038252602a81526020018061094e602a913960400191505060405180910390fd5b81421080610308575061030361030f565b824203105b9050919050565b600060b4905090565b60006060829050600081511415610335576000801b91505061033e565b60208301519150505b919050565b60006060600167ffffffffffffffff8111801561035f57600080fd5b5060405190808252806020026020018201604052801561038e5781602001602082028036833780820191505090505b509050828160008151811061039f57fe5b6020026020010181815250506103b4816103d0565b6000815181106103c057fe5b6020026020010151915050919050565b60606000606136033590506000602060408360ff1602019050606060405190508181528160428301360360208301376020810160405260008180519060200120905060008160405160200180807f19457468657265756d205369676e6564204d6573736167653a0a333200000000815250601c0182815260200191505060405160208183030381529060405280519060200120905060606040519050604181526041803603602083013760208101604052600061049682846105b490919063ffffffff16565b90506104a181610219565b610513576040517f08c379a00000000000000000000000000000000000000000000000000000000081526004018080602001828103825260158152602001807f5369676e6572206e6f7420617574686f72697a6564000000000000000000000081525060200191505060405180910390fd5b6000606236033590506105258161028f565b610597576040517f08c379a00000000000000000000000000000000000000000000000000000000081526004018080602001828103825260198152602001807f446174612074696d657374616d7020697320696e76616c69640000000000000081525060200191505060405180910390fd5b6105a58a8960ff1689610661565b98505050505050505050919050565b6000604182511461062d576040517f08c379a000000000000000000000000000000000000000000000000000000000815260040180806020018281038252601f8152602001807f45434453413a20696e76616c6964207369676e6174757265206c656e6774680081525060200191505060405180910390fd5b60008060006020850151925060408501519150606085015160001a905061065686828585610707565b935050505092915050565b6060806000806000806042870136035995508951865260208a51026020870101604052600094505b888510156106f757604085028101359150600093505b89518410156106ec57816020850260208c01015114156106d45760206040860282010135602085026020880101526001830192505b89518314156106e1578894505b60018401935061069f565b600185019450610689565b5084955050505050509392505050565b60007f7fffffffffffffffffffffffffffffff5d576e7357a4501ddfe92f46681b20a08260001c1115610785576040517f08c379a000000000000000000000000000000000000000000000000000000000815260040180806020018281038252602281526020018061090a6022913960400191505060405180910390fd5b601b8460ff16148061079a5750601c8460ff16145b6107ef576040517f08c379a000000000000000000000000000000000000000000000000000000000815260040180806020018281038252602281526020018061092c6022913960400191505060405180910390fd5b600060018686868660405160008152602001604052604051808581526020018460ff1660ff1681526020018381526020018281526020019450505050506020604051602081039080840390855afa15801561084e573d6000803e3d6000fd5b505050602060405103519050600073ffffffffffffffffffffffffffffffffffffffff168173ffffffffffffffffffffffffffffffffffffffff1614156108fd576040517f08c379a00000000000000000000000000000000000000000000000000000000081526004018080602001828103825260188152602001807f45434453413a20696e76616c6964207369676e6174757265000000000000000081525060200191505060405180910390fd5b8091505094935050505056fe45434453413a20696e76616c6964207369676e6174757265202773272076616c756545434453413a20696e76616c6964207369676e6174757265202776272076616c7565446174612077697468206675747572652074696d657374616d7073206973206e6f7420616c6c6f776564a2646970667358221220e9d6f1db72c3fed1d73126111169a563c60de5a9342ae24c0f0c7d1406d7827e64736f6c63430006060033",
  "linkReferences": {},
  "deployedLinkReferences": {}
}